{
  "contractName": "GypsyProperty",
  "abi": [
    {
      "anonymous": false,
      "inputs": [
        {
          "indexed": false,
          "internalType": "uint256",
          "name": "propertyId",
          "type": "uint256"
        },
        {
          "indexed": false,
          "internalType": "string",
          "name": "propertyAddress",
          "type": "string"
        },
        {
          "indexed": false,
          "internalType": "uint256",
          "name": "rentPrice",
          "type": "uint256"
        },
        {
          "indexed": false,
          "internalType": "uint256",
          "name": "price",
          "type": "uint256"
        }
      ],
      "name": "NewProperty",
      "type": "event"
    },
    {
      "anonymous": false,
      "inputs": [
        {
          "indexed": true,
          "internalType": "address",
          "name": "previousOwner",
          "type": "address"
        },
        {
          "indexed": true,
          "internalType": "address",
          "name": "newOwner",
          "type": "address"
        }
      ],
      "name": "OwnershipTransferred",
      "type": "event"
    },
    {
      "inputs": [],
      "name": "isOwner",
      "outputs": [
        {
          "internalType": "bool",
          "name": "",
          "type": "bool"
        }
      ],
      "stateMutability": "view",
      "type": "function"
    },
    {
      "inputs": [],
      "name": "owner",
      "outputs": [
        {
          "internalType": "address",
          "name": "",
          "type": "address"
        }
      ],
      "stateMutability": "view",
      "type": "function"
    },
    {
      "inputs": [
        {
          "internalType": "address",
          "name": "",
          "type": "address"
        }
      ],
      "name": "ownerPropertyCount",
      "outputs": [
        {
          "internalType": "uint256",
          "name": "",
          "type": "uint256"
        }
      ],
      "stateMutability": "view",
      "type": "function"
    },
    {
      "inputs": [
        {
          "internalType": "uint256",
          "name": "",
          "type": "uint256"
        }
      ],
      "name": "properties",
      "outputs": [
        {
          "internalType": "string",
          "name": "propertyAddress",
          "type": "string"
        },
        {
          "internalType": "address",
          "name": "owner",
          "type": "address"
        },
        {
          "internalType": "address",
          "name": "renter",
          "type": "address"
        },
        {
          "internalType": "uint256",
          "name": "rentPrice",
          "type": "uint256"
        },
        {
          "internalType": "uint256",
          "name": "rentDueTime",
          "type": "uint256"
        },
        {
          "internalType": "uint256",
          "name": "price",
          "type": "uint256"
        },
        {
          "internalType": "bool",
          "name": "forSale",
          "type": "bool"
        },
        {
          "internalType": "bool",
          "name": "forRent",
          "type": "bool"
        }
      ],
      "stateMutability": "view",
      "type": "function"
    },
    {
      "inputs": [
        {
          "internalType": "uint256",
          "name": "",
          "type": "uint256"
        }
      ],
      "name": "propertyToOwner",
      "outputs": [
        {
          "internalType": "address",
          "name": "",
          "type": "address"
        }
      ],
      "stateMutability": "view",
      "type": "function"
    },
    {
      "inputs": [],
      "name": "renounceOwnership",
      "outputs": [],
      "stateMutability": "nonpayable",
      "type": "function"
    },
    {
      "inputs": [
        {
          "internalType": "address",
          "name": "newOwner",
          "type": "address"
        }
      ],
      "name": "transferOwnership",
      "outputs": [],
      "stateMutability": "nonpayable",
      "type": "function"
    },
    {
      "inputs": [
        {
          "internalType": "string",
          "name": "_propertyAddress",
          "type": "string"
        },
        {
          "internalType": "uint256",
          "name": "_rentPrice",
          "type": "uint256"
        },
        {
          "internalType": "uint256",
          "name": "_price",
          "type": "uint256"
        }
      ],
      "name": "createProperty",
      "outputs": [],
      "stateMutability": "nonpayable",
      "type": "function"
    }
  ],
  "bytecode": "0x608060405234801561001057600080fd5b50336000806101000a81548173ffffffffffffffffffffffffffffffffffffffff021916908373ffffffffffffffffffffffffffffffffffffffff16021790555060008054906101000a900473ffffffffffffffffffffffffffffffffffffffff1673ffffffffffffffffffffffffffffffffffffffff16600073ffffffffffffffffffffffffffffffffffffffff167f8be0079c531659141344cd1fd0a4f28419497f9722a3daafe3b4186f6b6457e060405160405180910390a3610ebe806100db6000396000f3fe608060405234801561001057600080fd5b50600436106100885760003560e01c80638da5cb5b1161005b5780638da5cb5b146101135780638f32d59b14610131578063f2fde38b1461014f578063f7b108081461016b57610088565b80630b56e3831461008d57806321319ebd146100bd578063715018a6146100d957806389cb8f6d146100e3575b600080fd5b6100a760048036038101906100a2919061092b565b6101a2565b6040516100b49190610999565b60405180910390f35b6100d760048036038101906100d29190610afa565b6101d5565b005b6100e1610489565b005b6100fd60048036038101906100f89190610b95565b610558565b60405161010a9190610bd1565b60405180910390f35b61011b610570565b6040516101289190610999565b60405180910390f35b610139610599565b6040516101469190610c07565b60405180910390f35b61016960048036038101906101649190610b95565b6105f0565b005b6101856004803603810190610180919061092b565b61060d565b604051610199989796959493929190610caa565b60405180910390f35b60026020528060005260406000206000915054906101000a900473ffffffffffffffffffffffffffffffffffffffff1681565b6101dd610599565b6101e657600080fd5b60016040518061010001604052808581526020013373ffffffffffffffffffffffffffffffffffffffff168152602001600073ffffffffffffffffffffffffffffffffffffffff16815260200184815260200160008152602001838152602001600015158152602001600015158152509080600181540180825580915050600190039060005260206000209060070201600090919091909150600082015181600001908051906020019061029b92919061083e565b5060208201518160010160006101000a81548173ffffffffffffffffffffffffffffffffffffffff021916908373ffffffffffffffffffffffffffffffffffffffff16021790555060408201518160020160006101000a81548173ffffffffffffffffffffffffffffffffffffffff021916908373ffffffffffffffffffffffffffffffffffffffff160217905550606082015181600301556080820151816004015560a0820151816005015560c08201518160060160006101000a81548160ff02191690831515021790555060e08201518160060160016101000a81548160ff021916908315150217905550505060006001808054905061039d9190610d5e565b9050336002600083815260200190815260200160002060006101000a81548173ffffffffffffffffffffffffffffffffffffffff021916908373ffffffffffffffffffffffffffffffffffffffff160217905550600360003373ffffffffffffffffffffffffffffffffffffffff1673ffffffffffffffffffffffffffffffffffffffff168152602001908152602001600020600081548092919061044190610d92565b91905055507f0ba21c34efe7807eef79f225cf4b033c6eaa6d9643be08a83bd574df6279564e8185858560405161047b9493929190610ddb565b60405180910390a150505050565b610491610599565b61049a57600080fd5b600073ffffffffffffffffffffffffffffffffffffffff1660008054906101000a900473ffffffffffffffffffffffffffffffffffffffff1673ffffffffffffffffffffffffffffffffffffffff167f8be0079c531659141344cd1fd0a4f28419497f9722a3daafe3b4186f6b6457e060405160405180910390a360008060006101000a81548173ffffffffffffffffffffffffffffffffffffffff021916908373ffffffffffffffffffffffffffffffffffffffff160217905550565b60036020528060005260406000206000915090505481565b60008060009054906101000a900473ffffffffffffffffffffffffffffffffffffffff16905090565b60008060009054906101000a900473ffffffffffffffffffffffffffffffffffffffff1673ffffffffffffffffffffffffffffffffffffffff163373ffffffffffffffffffffffffffffffffffffffff1614905090565b6105f8610599565b61060157600080fd5b61060a81610747565b50565b6001818154811061061d57600080fd5b906000526020600020906007020160009150905080600001805461064090610e56565b80601f016020809104026020016040519081016040528092919081815260200182805461066c90610e56565b80156106b95780601f1061068e576101008083540402835291602001916106b9565b820191906000526020600020905b81548152906001019060200180831161069c57829003601f168201915b5050505050908060010160009054906101000a900473ffffffffffffffffffffffffffffffffffffffff16908060020160009054906101000a900473ffffffffffffffffffffffffffffffffffffffff16908060030154908060040154908060050154908060060160009054906101000a900460ff16908060060160019054906101000a900460ff16905088565b600073ffffffffffffffffffffffffffffffffffffffff168173ffffffffffffffffffffffffffffffffffffffff16141561078157600080fd5b8073ffffffffffffffffffffffffffffffffffffffff1660008054906101000a900473ffffffffffffffffffffffffffffffffffffffff1673ffffffffffffffffffffffffffffffffffffffff167f8be0079c531659141344cd1fd0a4f28419497f9722a3daafe3b4186f6b6457e060405160405180910390a3806000806101000a81548173ffffffffffffffffffffffffffffffffffffffff021916908373ffffffffffffffffffffffffffffffffffffffff16021790555050565b82805461084a90610e56565b90600052602060002090601f01602090048101928261086c57600085556108b3565b82601f1061088557805160ff19168380011785556108b3565b828001600101855582156108b3579182015b828111156108b2578251825591602001919060010190610897565b5b5090506108c091906108c4565b5090565b5b808211156108dd5760008160009055506001016108c5565b5090565b6000604051905090565b600080fd5b600080fd5b6000819050919050565b610908816108f5565b811461091357600080fd5b50565b600081359050610925816108ff565b92915050565b600060208284031215610941576109406108eb565b5b600061094f84828501610916565b91505092915050565b600073ffffffffffffffffffffffffffffffffffffffff82169050919050565b600061098382610958565b9050919050565b61099381610978565b82525050565b60006020820190506109ae600083018461098a565b92915050565b600080fd5b600080fd5b6000601f19601f8301169050919050565b7f4e487b7100000000000000000000000000000000000000000000000000000000600052604160045260246000fd5b610a07826109be565b810181811067ffffffffffffffff82111715610a2657610a256109cf565b5b80604052505050565b6000610a396108e1565b9050610a4582826109fe565b919050565b600067ffffffffffffffff821115610a6557610a646109cf565b5b610a6e826109be565b9050602081019050919050565b82818337600083830152505050565b6000610a9d610a9884610a4a565b610a2f565b905082815260208101848484011115610ab957610ab86109b9565b5b610ac4848285610a7b565b509392505050565b600082601f830112610ae157610ae06109b4565b5b8135610af1848260208601610a8a565b91505092915050565b600080600060608486031215610b1357610b126108eb565b5b600084013567ffffffffffffffff811115610b3157610b306108f0565b5b610b3d86828701610acc565b9350506020610b4e86828701610916565b9250506040610b5f86828701610916565b9150509250925092565b610b7281610978565b8114610b7d57600080fd5b50565b600081359050610b8f81610b69565b92915050565b600060208284031215610bab57610baa6108eb565b5b6000610bb984828501610b80565b91505092915050565b610bcb816108f5565b82525050565b6000602082019050610be66000830184610bc2565b92915050565b60008115159050919050565b610c0181610bec565b82525050565b6000602082019050610c1c6000830184610bf8565b92915050565b600081519050919050565b600082825260208201905092915050565b60005b83811015610c5c578082015181840152602081019050610c41565b83811115610c6b576000848401525b50505050565b6000610c7c82610c22565b610c868185610c2d565b9350610c96818560208601610c3e565b610c9f816109be565b840191505092915050565b6000610100820190508181036000830152610cc5818b610c71565b9050610cd4602083018a61098a565b610ce1604083018961098a565b610cee6060830188610bc2565b610cfb6080830187610bc2565b610d0860a0830186610bc2565b610d1560c0830185610bf8565b610d2260e0830184610bf8565b9998505050505050505050565b7f4e487b7100000000000000000000000000000000000000000000000000000000600052601160045260246000fd5b6000610d69826108f5565b9150610d74836108f5565b925082821015610d8757610d86610d2f565b5b828203905092915050565b6000610d9d826108f5565b91507fffffffffffffffffffffffffffffffffffffffffffffffffffffffffffffffff821415610dd057610dcf610d2f565b5b600182019050919050565b6000608082019050610df06000830187610bc2565b8181036020830152610e028186610c71565b9050610e116040830185610bc2565b610e1e6060830184610bc2565b95945050505050565b7f4e487b7100000000000000000000000000000000000000000000000000000000600052602260045260246000fd5b60006002820490506001821680610e6e57607f821691505b60208210811415610e8257610e81610e27565b5b5091905056fea26469706673582212203047f124132095dc4036f7cc517e2caefd0137c1b5ed914a12c53cb9b52f4c1064736f6c634300080a0033",
  "immutableReferences": {},
  "source": "// SPDX-License-Identifier: MIT\npragma solidity >=0.7.0 <0.9.0;\n\nimport \"./ownable.sol\";\n\ncontract GypsyProperty is Ownable {\n\n  event NewProperty(uint propertyId, string propertyAddress, uint rentPrice, uint price);\n\n  struct Property {\n    string propertyAddress;\n    address owner;\n    address renter;\n    uint256 rentPrice;\n    uint256 rentDueTime;\n    uint256 price;\n    bool forSale;\n    bool forRent;\n  }\n\n  Property[] public properties;\n\n  mapping (uint => address) public propertyToOwner;\n  mapping (address => uint) public ownerPropertyCount;\n\n  function createProperty(string memory _propertyAddress, uint256 _rentPrice, uint256 _price) public onlyOwner {\n    properties.push(Property(_propertyAddress, msg.sender, address(0), _rentPrice, 0, _price, false, false));\n    uint id = properties.length - 1;\n    propertyToOwner[id] = msg.sender;\n    ownerPropertyCount[msg.sender]++;\n    emit NewProperty(id, _propertyAddress, _rentPrice, _price);\n  }\n\n}\n",
  "sourcePath": "/Users/JordanSun/Desktop/Gypsy/src/contracts/gypsyproperty.sol",
  "compiler": {
    "name": "solc",
    "version": "0.8.10+commit.fc410830.Emscripten.clang"
  },
  "schemaVersion": "3.4.1",
  "updatedAt": "2021-12-05T08:11:52.050Z",
  "devdoc": {
    "kind": "dev",
    "methods": {
      "isOwner()": {
        "returns": {
          "_0": "true if `msg.sender` is the owner of the contract."
        }
      },
      "owner()": {
        "returns": {
          "_0": "the address of the owner."
        }
      },
      "renounceOwnership()": {
        "details": "Allows the current owner to relinquish control of the contract."
      },
      "transferOwnership(address)": {
        "details": "Allows the current owner to transfer control of the contract to a newOwner.",
        "params": {
          "newOwner": "The address to transfer ownership to."
        }
      }
    },
    "version": 1
  },
  "userdoc": {
    "kind": "user",
    "methods": {
      "renounceOwnership()": {
        "notice": "Renouncing to ownership will leave the contract without an owner. It will not be possible to call the functions with the `onlyOwner` modifier anymore."
      }
    },
    "version": 1
  }
}