{
  "contractName": "GypsyOwnership",
  "abi": [
    {
      "anonymous": false,
      "inputs": [
        {
          "indexed": true,
          "internalType": "address",
          "name": "_owner",
          "type": "address"
        },
        {
          "indexed": true,
          "internalType": "address",
          "name": "_approved",
          "type": "address"
        },
        {
          "indexed": true,
          "internalType": "uint256",
          "name": "_tokenId",
          "type": "uint256"
        }
      ],
      "name": "Approval",
      "type": "event"
    },
    {
      "anonymous": false,
      "inputs": [
        {
          "indexed": false,
          "internalType": "uint256",
          "name": "propertyId",
          "type": "uint256"
        },
        {
          "indexed": false,
          "internalType": "string",
          "name": "propertyAddress",
          "type": "string"
        },
        {
          "indexed": false,
          "internalType": "uint256",
          "name": "rentPrice",
          "type": "uint256"
        },
        {
          "indexed": false,
          "internalType": "uint256",
          "name": "price",
          "type": "uint256"
        }
      ],
      "name": "NewProperty",
      "type": "event"
    },
    {
      "anonymous": false,
      "inputs": [
        {
          "indexed": true,
          "internalType": "address",
          "name": "previousOwner",
          "type": "address"
        },
        {
          "indexed": true,
          "internalType": "address",
          "name": "newOwner",
          "type": "address"
        }
      ],
      "name": "OwnershipTransferred",
      "type": "event"
    },
    {
      "anonymous": false,
      "inputs": [],
      "name": "PropertyRented",
      "type": "event"
    },
    {
      "anonymous": false,
      "inputs": [
        {
          "indexed": true,
          "internalType": "address",
          "name": "_from",
          "type": "address"
        },
        {
          "indexed": true,
          "internalType": "address",
          "name": "_to",
          "type": "address"
        },
        {
          "indexed": true,
          "internalType": "uint256",
          "name": "_tokenId",
          "type": "uint256"
        }
      ],
      "name": "PropertySale",
      "type": "event"
    },
    {
      "anonymous": false,
      "inputs": [
        {
          "indexed": true,
          "internalType": "address",
          "name": "_from",
          "type": "address"
        },
        {
          "indexed": true,
          "internalType": "address",
          "name": "_to",
          "type": "address"
        },
        {
          "indexed": true,
          "internalType": "uint256",
          "name": "_tokenId",
          "type": "uint256"
        }
      ],
      "name": "Transfer",
      "type": "event"
    },
    {
      "inputs": [
        {
          "internalType": "uint256",
          "name": "_propertyId",
          "type": "uint256"
        }
      ],
      "name": "buyProperty",
      "outputs": [],
      "stateMutability": "payable",
      "type": "function"
    },
    {
      "inputs": [
        {
          "internalType": "uint256",
          "name": "_propertyId",
          "type": "uint256"
        }
      ],
      "name": "closeRent",
      "outputs": [],
      "stateMutability": "nonpayable",
      "type": "function"
    },
    {
      "inputs": [
        {
          "internalType": "uint256",
          "name": "_propertyId",
          "type": "uint256"
        }
      ],
      "name": "closeSale",
      "outputs": [],
      "stateMutability": "nonpayable",
      "type": "function"
    },
    {
      "inputs": [
        {
          "internalType": "string",
          "name": "_propertyAddress",
          "type": "string"
        },
        {
          "internalType": "uint256",
          "name": "_rentPrice",
          "type": "uint256"
        },
        {
          "internalType": "uint256",
          "name": "_price",
          "type": "uint256"
        }
      ],
      "name": "createProperty",
      "outputs": [],
      "stateMutability": "nonpayable",
      "type": "function"
    },
    {
      "inputs": [],
      "name": "isOwner",
      "outputs": [
        {
          "internalType": "bool",
          "name": "",
          "type": "bool"
        }
      ],
      "stateMutability": "view",
      "type": "function"
    },
    {
      "inputs": [
        {
          "internalType": "uint256",
          "name": "_propertyId",
          "type": "uint256"
        }
      ],
      "name": "openRent",
      "outputs": [],
      "stateMutability": "nonpayable",
      "type": "function"
    },
    {
      "inputs": [
        {
          "internalType": "uint256",
          "name": "_propertyId",
          "type": "uint256"
        }
      ],
      "name": "openSale",
      "outputs": [],
      "stateMutability": "nonpayable",
      "type": "function"
    },
    {
      "inputs": [],
      "name": "owner",
      "outputs": [
        {
          "internalType": "address",
          "name": "",
          "type": "address"
        }
      ],
      "stateMutability": "view",
      "type": "function"
    },
    {
      "inputs": [
        {
          "internalType": "address",
          "name": "",
          "type": "address"
        }
      ],
      "name": "ownerPropertyCount",
      "outputs": [
        {
          "internalType": "uint256",
          "name": "",
          "type": "uint256"
        }
      ],
      "stateMutability": "view",
      "type": "function"
    },
    {
      "inputs": [
        {
          "internalType": "uint256",
          "name": "_propertyId",
          "type": "uint256"
        }
      ],
      "name": "payRent",
      "outputs": [],
      "stateMutability": "payable",
      "type": "function"
    },
    {
      "inputs": [
        {
          "internalType": "uint256",
          "name": "",
          "type": "uint256"
        }
      ],
      "name": "properties",
      "outputs": [
        {
          "internalType": "string",
          "name": "propertyAddress",
          "type": "string"
        },
        {
          "internalType": "address",
          "name": "owner",
          "type": "address"
        },
        {
          "internalType": "address",
          "name": "renter",
          "type": "address"
        },
        {
          "internalType": "uint256",
          "name": "rentPrice",
          "type": "uint256"
        },
        {
          "internalType": "uint256",
          "name": "rentDueTime",
          "type": "uint256"
        },
        {
          "internalType": "uint256",
          "name": "price",
          "type": "uint256"
        },
        {
          "internalType": "bool",
          "name": "forSale",
          "type": "bool"
        },
        {
          "internalType": "bool",
          "name": "forRent",
          "type": "bool"
        }
      ],
      "stateMutability": "view",
      "type": "function"
    },
    {
      "inputs": [
        {
          "internalType": "uint256",
          "name": "",
          "type": "uint256"
        }
      ],
      "name": "propertyToOwner",
      "outputs": [
        {
          "internalType": "address",
          "name": "",
          "type": "address"
        }
      ],
      "stateMutability": "view",
      "type": "function"
    },
    {
      "inputs": [],
      "name": "renounceOwnership",
      "outputs": [],
      "stateMutability": "nonpayable",
      "type": "function"
    },
    {
      "inputs": [
        {
          "internalType": "uint256",
          "name": "_propertyId",
          "type": "uint256"
        }
      ],
      "name": "rentProperty",
      "outputs": [],
      "stateMutability": "nonpayable",
      "type": "function"
    },
    {
      "inputs": [
        {
          "internalType": "address",
          "name": "newOwner",
          "type": "address"
        }
      ],
      "name": "transferOwnership",
      "outputs": [],
      "stateMutability": "nonpayable",
      "type": "function"
    },
    {
      "inputs": [],
      "name": "withdraw",
      "outputs": [],
      "stateMutability": "nonpayable",
      "type": "function"
    },
    {
      "inputs": [
        {
          "internalType": "address",
          "name": "_owner",
          "type": "address"
        }
      ],
      "name": "balanceOf",
      "outputs": [
        {
          "internalType": "uint256",
          "name": "",
          "type": "uint256"
        }
      ],
      "stateMutability": "view",
      "type": "function"
    },
    {
      "inputs": [
        {
          "internalType": "uint256",
          "name": "_propertyId",
          "type": "uint256"
        }
      ],
      "name": "ownerOf",
      "outputs": [
        {
          "internalType": "address",
          "name": "",
          "type": "address"
        }
      ],
      "stateMutability": "view",
      "type": "function"
    },
    {
      "inputs": [
        {
          "internalType": "address",
          "name": "_from",
          "type": "address"
        },
        {
          "internalType": "address",
          "name": "_to",
          "type": "address"
        },
        {
          "internalType": "uint256",
          "name": "_propertyId",
          "type": "uint256"
        }
      ],
      "name": "transferFrom",
      "outputs": [],
      "stateMutability": "nonpayable",
      "type": "function"
    },
    {
      "inputs": [
        {
          "internalType": "address",
          "name": "_approved",
          "type": "address"
        },
        {
          "internalType": "uint256",
          "name": "_propertyId",
          "type": "uint256"
        }
      ],
      "name": "approve",
      "outputs": [],
      "stateMutability": "payable",
      "type": "function"
    }
  ],
  "bytecode": "0x608060405234801561001057600080fd5b50336000806101000a81548173ffffffffffffffffffffffffffffffffffffffff021916908373ffffffffffffffffffffffffffffffffffffffff16021790555060008054906101000a900473ffffffffffffffffffffffffffffffffffffffff1673ffffffffffffffffffffffffffffffffffffffff16600073ffffffffffffffffffffffffffffffffffffffff167f8be0079c531659141344cd1fd0a4f28419497f9722a3daafe3b4186f6b6457e060405160405180910390a3612307806100db6000396000f3fe60806040526004361061011f5760003560e01c806370a08231116100a05780639d36ab6c116100645780639d36ab6c146103a1578063a4223d53146103ca578063d9e8843f146103f3578063f2fde38b1461040f578063f7b10808146104385761011f565b806370a08231146102ba578063715018a6146102f757806389cb8f6d1461030e5780638da5cb5b1461034b5780638f32d59b146103765761011f565b806334ec740a116100e757806334ec740a146101f85780633ccfd60b146102215780634f2362f8146102385780636352211e146102615780636fa830a61461029e5761011f565b8063095ea7b3146101245780630b56e3831461014057806321319ebd1461017d57806323b872dd146101a65780632502bfad146101cf575b600080fd5b61013e60048036038101906101399190611a70565b61047c565b005b34801561014c57600080fd5b5061016760048036038101906101629190611ab0565b6105d0565b6040516101749190611aec565b60405180910390f35b34801561018957600080fd5b506101a4600480360381019061019f9190611c4d565b610603565b005b3480156101b257600080fd5b506101cd60048036038101906101c89190611cbc565b6108b7565b005b3480156101db57600080fd5b506101f660048036038101906101f19190611ab0565b61099b565b005b34801561020457600080fd5b5061021f600480360381019061021a9190611ab0565b610abc565b005b34801561022d57600080fd5b50610236610bdd565b005b34801561024457600080fd5b5061025f600480360381019061025a9190611ab0565b610c44565b005b34801561026d57600080fd5b5061028860048036038101906102839190611ab0565b610d28565b6040516102959190611aec565b60405180910390f35b6102b860048036038101906102b39190611ab0565b610d65565b005b3480156102c657600080fd5b506102e160048036038101906102dc9190611d0f565b610fdc565b6040516102ee9190611d4b565b60405180910390f35b34801561030357600080fd5b5061030c611025565b005b34801561031a57600080fd5b5061033560048036038101906103309190611d0f565b6110f4565b6040516103429190611d4b565b60405180910390f35b34801561035757600080fd5b5061036061110c565b60405161036d9190611aec565b60405180910390f35b34801561038257600080fd5b5061038b611135565b6040516103989190611d81565b60405180910390f35b3480156103ad57600080fd5b506103c860048036038101906103c39190611ab0565b61118c565b005b3480156103d657600080fd5b506103f160048036038101906103ec9190611ab0565b6112d8565b005b61040d60048036038101906104089190611ab0565b611437565b005b34801561041b57600080fd5b5061043660048036038101906104319190611d0f565b61155e565b005b34801561044457600080fd5b5061045f600480360381019061045a9190611ab0565b61157b565b604051610473989796959493929190611e24565b60405180910390f35b806002600082815260200190815260200160002060009054906101000a900473ffffffffffffffffffffffffffffffffffffffff1673ffffffffffffffffffffffffffffffffffffffff163373ffffffffffffffffffffffffffffffffffffffff161461051e576040517f08c379a000000000000000000000000000000000000000000000000000000000815260040161051590611ef5565b60405180910390fd5b826004600084815260200190815260200160002060006101000a81548173ffffffffffffffffffffffffffffffffffffffff021916908373ffffffffffffffffffffffffffffffffffffffff160217905550818373ffffffffffffffffffffffffffffffffffffffff163373ffffffffffffffffffffffffffffffffffffffff167f8c5be1e5ebec7d5bd14f71427d1e84f3dd0314c0f7b2291e5b200ac8c7c3b92560405160405180910390a4505050565b60026020528060005260406000206000915054906101000a900473ffffffffffffffffffffffffffffffffffffffff1681565b61060b611135565b61061457600080fd5b60016040518061010001604052808581526020013373ffffffffffffffffffffffffffffffffffffffff168152602001600073ffffffffffffffffffffffffffffffffffffffff1681526020018481526020016000815260200183815260200160001515815260200160001515815250908060018154018082558091505060019003906000526020600020906007020160009091909190915060008201518160000190805190602001906106c9929190611925565b5060208201518160010160006101000a81548173ffffffffffffffffffffffffffffffffffffffff021916908373ffffffffffffffffffffffffffffffffffffffff16021790555060408201518160020160006101000a81548173ffffffffffffffffffffffffffffffffffffffff021916908373ffffffffffffffffffffffffffffffffffffffff160217905550606082015181600301556080820151816004015560a0820151816005015560c08201518160060160006101000a81548160ff02191690831515021790555060e08201518160060160016101000a81548160ff02191690831515021790555050506000600180805490506107cb9190611f44565b9050336002600083815260200190815260200160002060006101000a81548173ffffffffffffffffffffffffffffffffffffffff021916908373ffffffffffffffffffffffffffffffffffffffff160217905550600360003373ffffffffffffffffffffffffffffffffffffffff1673ffffffffffffffffffffffffffffffffffffffff168152602001908152602001600020600081548092919061086f90611f78565b91905055507f0ba21c34efe7807eef79f225cf4b033c6eaa6d9643be08a83bd574df6279564e818585856040516108a99493929190611fc1565b60405180910390a150505050565b3373ffffffffffffffffffffffffffffffffffffffff166002600083815260200190815260200160002060009054906101000a900473ffffffffffffffffffffffffffffffffffffffff1673ffffffffffffffffffffffffffffffffffffffff16148061098257503373ffffffffffffffffffffffffffffffffffffffff166004600083815260200190815260200160002060009054906101000a900473ffffffffffffffffffffffffffffffffffffffff1673ffffffffffffffffffffffffffffffffffffffff16145b61098b57600080fd5b6109968383836116b5565b505050565b806002600082815260200190815260200160002060009054906101000a900473ffffffffffffffffffffffffffffffffffffffff1673ffffffffffffffffffffffffffffffffffffffff163373ffffffffffffffffffffffffffffffffffffffff1614610a3d576040517f08c379a0000000000000000000000000000000000000000000000000000000008152600401610a3490611ef5565b60405180910390fd5b600060018381548110610a5357610a5261200d565b5b906000526020600020906007020160060160006101000a81548160ff0219169083151502179055506001808381548110610a9057610a8f61200d565b5b906000526020600020906007020160060160016101000a81548160ff0219169083151502179055505050565b806002600082815260200190815260200160002060009054906101000a900473ffffffffffffffffffffffffffffffffffffffff1673ffffffffffffffffffffffffffffffffffffffff163373ffffffffffffffffffffffffffffffffffffffff1614610b5e576040517f08c379a0000000000000000000000000000000000000000000000000000000008152600401610b5590611ef5565b60405180910390fd5b600060018381548110610b7457610b7361200d565b5b906000526020600020906007020160060160016101000a81548160ff0219169083151502179055506001808381548110610bb157610bb061200d565b5b906000526020600020906007020160060160006101000a81548160ff0219169083151502179055505050565b610be5611135565b610bee57600080fd5b6000610bf861110c565b90508073ffffffffffffffffffffffffffffffffffffffff166108fc479081150290604051600060405180830381858888f19350505050158015610c40573d6000803e3d6000fd5b5050565b806002600082815260200190815260200160002060009054906101000a900473ffffffffffffffffffffffffffffffffffffffff1673ffffffffffffffffffffffffffffffffffffffff163373ffffffffffffffffffffffffffffffffffffffff1614610ce6576040517f08c379a0000000000000000000000000000000000000000000000000000000008152600401610cdd90611ef5565b60405180910390fd5b600060018381548110610cfc57610cfb61200d565b5b906000526020600020906007020160060160016101000a81548160ff0219169083151502179055505050565b60006002600083815260200190815260200160002060009054906101000a900473ffffffffffffffffffffffffffffffffffffffff169050919050565b806001151560018281548110610d7e57610d7d61200d565b5b906000526020600020906007020160060160009054906101000a900460ff16151514610ddf576040517f08c379a0000000000000000000000000000000000000000000000000000000008152600401610dd690612088565b60405180910390fd5b610e0d60018381548110610df657610df561200d565b5b906000526020600020906007020160050154611811565b3414610e4e576040517f08c379a0000000000000000000000000000000000000000000000000000000008152600401610e45906120f4565b60405180910390fd5b600360006002600085815260200190815260200160002060009054906101000a900473ffffffffffffffffffffffffffffffffffffffff1673ffffffffffffffffffffffffffffffffffffffff1673ffffffffffffffffffffffffffffffffffffffff1681526020019081526020016000206000815480929190610ed190612114565b9190505550600360003373ffffffffffffffffffffffffffffffffffffffff1673ffffffffffffffffffffffffffffffffffffffff1681526020019081526020016000206000815480929190610f2690611f78565b9190505550336002600084815260200190815260200160002060006101000a81548173ffffffffffffffffffffffffffffffffffffffff021916908373ffffffffffffffffffffffffffffffffffffffff160217905550813373ffffffffffffffffffffffffffffffffffffffff163073ffffffffffffffffffffffffffffffffffffffff167f1557748ac436e48fc9e42a4525d2524bb70b09fe8315ccf0f653061649241a5860405160405180910390a45050565b6000600360008373ffffffffffffffffffffffffffffffffffffffff1673ffffffffffffffffffffffffffffffffffffffff168152602001908152602001600020549050919050565b61102d611135565b61103657600080fd5b600073ffffffffffffffffffffffffffffffffffffffff1660008054906101000a900473ffffffffffffffffffffffffffffffffffffffff1673ffffffffffffffffffffffffffffffffffffffff167f8be0079c531659141344cd1fd0a4f28419497f9722a3daafe3b4186f6b6457e060405160405180910390a360008060006101000a81548173ffffffffffffffffffffffffffffffffffffffff021916908373ffffffffffffffffffffffffffffffffffffffff160217905550565b60036020528060005260406000206000915090505481565b60008060009054906101000a900473ffffffffffffffffffffffffffffffffffffffff16905090565b60008060009054906101000a900473ffffffffffffffffffffffffffffffffffffffff1673ffffffffffffffffffffffffffffffffffffffff163373ffffffffffffffffffffffffffffffffffffffff1614905090565b8060011515600182815481106111a5576111a461200d565b5b906000526020600020906007020160060160019054906101000a900460ff16151514611206576040517f08c379a00000000000000000000000000000000000000000000000000000000081526004016111fd90612088565b60405180910390fd5b336001838154811061121b5761121a61200d565b5b906000526020600020906007020160020160006101000a81548173ffffffffffffffffffffffffffffffffffffffff021916908373ffffffffffffffffffffffffffffffffffffffff1602179055506000600183815481106112805761127f61200d565b5b906000526020600020906007020160060160016101000a81548160ff0219169083151502179055507fe8c6d9034d14409f48bb94639f497cf64154edb7e9a07197ec1630b0b4d06a4260405160405180910390a15050565b806002600082815260200190815260200160002060009054906101000a900473ffffffffffffffffffffffffffffffffffffffff1673ffffffffffffffffffffffffffffffffffffffff163373ffffffffffffffffffffffffffffffffffffffff161461137a576040517f08c379a000000000000000000000000000000000000000000000000000000000815260040161137190611ef5565b60405180910390fd5b8160011515600182815481106113935761139261200d565b5b906000526020600020906007020160060160009054906101000a900460ff161515146113f4576040517f08c379a00000000000000000000000000000000000000000000000000000000081526004016113eb90612088565b60405180910390fd5b60006001848154811061140a5761140961200d565b5b906000526020600020906007020160060160006101000a81548160ff021916908315150217905550505050565b803373ffffffffffffffffffffffffffffffffffffffff16600182815481106114635761146261200d565b5b906000526020600020906007020160020160009054906101000a900473ffffffffffffffffffffffffffffffffffffffff1673ffffffffffffffffffffffffffffffffffffffff16146114eb576040517f08c379a00000000000000000000000000000000000000000000000000000000081526004016114e29061218a565b60405180910390fd5b611519600183815481106115025761150161200d565b5b906000526020600020906007020160030154611811565b341461155a576040517f08c379a0000000000000000000000000000000000000000000000000000000008152600401611551906121f6565b60405180910390fd5b5050565b611566611135565b61156f57600080fd5b6115788161182e565b50565b6001818154811061158b57600080fd5b90600052602060002090600702016000915090508060000180546115ae90612245565b80601f01602080910402602001604051908101604052809291908181526020018280546115da90612245565b80156116275780601f106115fc57610100808354040283529160200191611627565b820191906000526020600020905b81548152906001019060200180831161160a57829003601f168201915b5050505050908060010160009054906101000a900473ffffffffffffffffffffffffffffffffffffffff16908060020160009054906101000a900473ffffffffffffffffffffffffffffffffffffffff16908060030154908060040154908060050154908060060160009054906101000a900460ff16908060060160019054906101000a900460ff16905088565b600360008373ffffffffffffffffffffffffffffffffffffffff1673ffffffffffffffffffffffffffffffffffffffff168152602001908152602001600020600081548092919061170590611f78565b9190505550600360008473ffffffffffffffffffffffffffffffffffffffff1673ffffffffffffffffffffffffffffffffffffffff168152602001908152602001600020600081548092919061175a90612114565b9190505550816002600083815260200190815260200160002060006101000a81548173ffffffffffffffffffffffffffffffffffffffff021916908373ffffffffffffffffffffffffffffffffffffffff160217905550808273ffffffffffffffffffffffffffffffffffffffff168473ffffffffffffffffffffffffffffffffffffffff167fddf252ad1be2c89b69c2b068fc378daa952ba7f163c4a11628f55a4df523b3ef60405160405180910390a4505050565b6000670de0b6b3a7640000826118279190612277565b9050919050565b600073ffffffffffffffffffffffffffffffffffffffff168173ffffffffffffffffffffffffffffffffffffffff16141561186857600080fd5b8073ffffffffffffffffffffffffffffffffffffffff1660008054906101000a900473ffffffffffffffffffffffffffffffffffffffff1673ffffffffffffffffffffffffffffffffffffffff167f8be0079c531659141344cd1fd0a4f28419497f9722a3daafe3b4186f6b6457e060405160405180910390a3806000806101000a81548173ffffffffffffffffffffffffffffffffffffffff021916908373ffffffffffffffffffffffffffffffffffffffff16021790555050565b82805461193190612245565b90600052602060002090601f016020900481019282611953576000855561199a565b82601f1061196c57805160ff191683800117855561199a565b8280016001018555821561199a579182015b8281111561199957825182559160200191906001019061197e565b5b5090506119a791906119ab565b5090565b5b808211156119c45760008160009055506001016119ac565b5090565b6000604051905090565b600080fd5b600080fd5b600073ffffffffffffffffffffffffffffffffffffffff82169050919050565b6000611a07826119dc565b9050919050565b611a17816119fc565b8114611a2257600080fd5b50565b600081359050611a3481611a0e565b92915050565b6000819050919050565b611a4d81611a3a565b8114611a5857600080fd5b50565b600081359050611a6a81611a44565b92915050565b60008060408385031215611a8757611a866119d2565b5b6000611a9585828601611a25565b9250506020611aa685828601611a5b565b9150509250929050565b600060208284031215611ac657611ac56119d2565b5b6000611ad484828501611a5b565b91505092915050565b611ae6816119fc565b82525050565b6000602082019050611b016000830184611add565b92915050565b600080fd5b600080fd5b6000601f19601f8301169050919050565b7f4e487b7100000000000000000000000000000000000000000000000000000000600052604160045260246000fd5b611b5a82611b11565b810181811067ffffffffffffffff82111715611b7957611b78611b22565b5b80604052505050565b6000611b8c6119c8565b9050611b988282611b51565b919050565b600067ffffffffffffffff821115611bb857611bb7611b22565b5b611bc182611b11565b9050602081019050919050565b82818337600083830152505050565b6000611bf0611beb84611b9d565b611b82565b905082815260208101848484011115611c0c57611c0b611b0c565b5b611c17848285611bce565b509392505050565b600082601f830112611c3457611c33611b07565b5b8135611c44848260208601611bdd565b91505092915050565b600080600060608486031215611c6657611c656119d2565b5b600084013567ffffffffffffffff811115611c8457611c836119d7565b5b611c9086828701611c1f565b9350506020611ca186828701611a5b565b9250506040611cb286828701611a5b565b9150509250925092565b600080600060608486031215611cd557611cd46119d2565b5b6000611ce386828701611a25565b9350506020611cf486828701611a25565b9250506040611d0586828701611a5b565b9150509250925092565b600060208284031215611d2557611d246119d2565b5b6000611d3384828501611a25565b91505092915050565b611d4581611a3a565b82525050565b6000602082019050611d606000830184611d3c565b92915050565b60008115159050919050565b611d7b81611d66565b82525050565b6000602082019050611d966000830184611d72565b92915050565b600081519050919050565b600082825260208201905092915050565b60005b83811015611dd6578082015181840152602081019050611dbb565b83811115611de5576000848401525b50505050565b6000611df682611d9c565b611e008185611da7565b9350611e10818560208601611db8565b611e1981611b11565b840191505092915050565b6000610100820190508181036000830152611e3f818b611deb565b9050611e4e602083018a611add565b611e5b6040830189611add565b611e686060830188611d3c565b611e756080830187611d3c565b611e8260a0830186611d3c565b611e8f60c0830185611d72565b611e9c60e0830184611d72565b9998505050505050505050565b7f4d757374206f776e20746869732070726f706572747900000000000000000000600082015250565b6000611edf601683611da7565b9150611eea82611ea9565b602082019050919050565b60006020820190508181036000830152611f0e81611ed2565b9050919050565b7f4e487b7100000000000000000000000000000000000000000000000000000000600052601160045260246000fd5b6000611f4f82611a3a565b9150611f5a83611a3a565b925082821015611f6d57611f6c611f15565b5b828203905092915050565b6000611f8382611a3a565b91507fffffffffffffffffffffffffffffffffffffffffffffffffffffffffffffffff821415611fb657611fb5611f15565b5b600182019050919050565b6000608082019050611fd66000830187611d3c565b8181036020830152611fe88186611deb565b9050611ff76040830185611d3c565b6120046060830184611d3c565b95945050505050565b7f4e487b7100000000000000000000000000000000000000000000000000000000600052603260045260246000fd5b7f4e6f7420666f722053616c650000000000000000000000000000000000000000600082015250565b6000612072600c83611da7565b915061207d8261203c565b602082019050919050565b600060208201905081810360008301526120a181612065565b9050919050565b7f496e636f727265637420707269636520696e7075747465640000000000000000600082015250565b60006120de601883611da7565b91506120e9826120a8565b602082019050919050565b6000602082019050818103600083015261210d816120d1565b9050919050565b600061211f82611a3a565b9150600082141561213357612132611f15565b5b600182039050919050565b7f4e6f742072656e74657200000000000000000000000000000000000000000000600082015250565b6000612174600a83611da7565b915061217f8261213e565b602082019050919050565b600060208201905081810360008301526121a381612167565b9050919050565b7f496e636f72726563742072656e7420707269636520696e707574746564000000600082015250565b60006121e0601d83611da7565b91506121eb826121aa565b602082019050919050565b6000602082019050818103600083015261220f816121d3565b9050919050565b7f4e487b7100000000000000000000000000000000000000000000000000000000600052602260045260246000fd5b6000600282049050600182168061225d57607f821691505b6020821081141561227157612270612216565b5b50919050565b600061228282611a3a565b915061228d83611a3a565b9250817fffffffffffffffffffffffffffffffffffffffffffffffffffffffffffffffff04831182151516156122c6576122c5611f15565b5b82820290509291505056fea264697066735822122073a36caa605f67cbb6be21a75aceeb5e1a1083074c2e00a70d017d123f812b0e64736f6c634300080a0033",
  "immutableReferences": {},
  "source": "// SPDX-License-Identifier: MIT\npragma solidity >=0.7.0 <0.9.0;\n\nimport \"./gypsyrent.sol\";\nimport \"./erc721.sol\";\n\ncontract GypsyOwnership is GypsyRent, ERC721 {\n  \n  mapping (uint => address) propertyApprovals;\n\n  function balanceOf(address _owner) external view override returns (uint256) {\n    return ownerPropertyCount[_owner];\n  }\n\n  function ownerOf(uint256 _propertyId) external view override returns (address) {\n    return propertyToOwner[_propertyId];\n  }\n\n  function _transfer(address _from, address _to, uint256 _propertyId) private {\n    ownerPropertyCount[_to]++;\n    ownerPropertyCount[_from]--;\n    propertyToOwner[_propertyId] = _to;\n    emit Transfer(_from, _to, _propertyId);\n  }\n\n  function transferFrom(address _from, address _to, uint256 _propertyId) external override {\n    require (propertyToOwner[_propertyId] == msg.sender || propertyApprovals[_propertyId] == msg.sender);\n    _transfer(_from, _to, _propertyId);\n  }\n\n  function approve(address _approved, uint256 _propertyId) external payable override onlyOwnerOf(_propertyId) {\n    propertyApprovals[_propertyId] = _approved;\n    emit Approval(msg.sender, _approved, _propertyId);\n  }\n\n}",
  "sourcePath": "/Users/JordanSun/Desktop/Gypsy/src/contracts/gypsyownership.sol",
  "compiler": {
    "name": "solc",
    "version": "0.8.10+commit.fc410830.Emscripten.clang"
  },
  "schemaVersion": "3.4.1",
  "updatedAt": "2021-12-06T06:53:02.424Z",
  "devdoc": {
    "kind": "dev",
    "methods": {
      "isOwner()": {
        "returns": {
          "_0": "true if `msg.sender` is the owner of the contract."
        }
      },
      "owner()": {
        "returns": {
          "_0": "the address of the owner."
        }
      },
      "renounceOwnership()": {
        "details": "Allows the current owner to relinquish control of the contract."
      },
      "transferOwnership(address)": {
        "details": "Allows the current owner to transfer control of the contract to a newOwner.",
        "params": {
          "newOwner": "The address to transfer ownership to."
        }
      }
    },
    "version": 1
  },
  "userdoc": {
    "kind": "user",
    "methods": {
      "renounceOwnership()": {
        "notice": "Renouncing to ownership will leave the contract without an owner. It will not be possible to call the functions with the `onlyOwner` modifier anymore."
      }
    },
    "version": 1
  }
}