{
  "contractName": "GypsyRent",
  "abi": [
    {
      "anonymous": false,
      "inputs": [
        {
          "indexed": false,
          "internalType": "uint256",
          "name": "propertyId",
          "type": "uint256"
        },
        {
          "indexed": false,
          "internalType": "string",
          "name": "propertyAddress",
          "type": "string"
        },
        {
          "indexed": false,
          "internalType": "uint256",
          "name": "rentPrice",
          "type": "uint256"
        },
        {
          "indexed": false,
          "internalType": "uint256",
          "name": "price",
          "type": "uint256"
        }
      ],
      "name": "NewProperty",
      "type": "event"
    },
    {
      "anonymous": false,
      "inputs": [
        {
          "indexed": true,
          "internalType": "address",
          "name": "previousOwner",
          "type": "address"
        },
        {
          "indexed": true,
          "internalType": "address",
          "name": "newOwner",
          "type": "address"
        }
      ],
      "name": "OwnershipTransferred",
      "type": "event"
    },
    {
      "anonymous": false,
      "inputs": [],
      "name": "PropertyRented",
      "type": "event"
    },
    {
      "anonymous": false,
      "inputs": [
        {
          "indexed": true,
          "internalType": "address",
          "name": "_from",
          "type": "address"
        },
        {
          "indexed": true,
          "internalType": "address",
          "name": "_to",
          "type": "address"
        },
        {
          "indexed": true,
          "internalType": "uint256",
          "name": "_tokenId",
          "type": "uint256"
        }
      ],
      "name": "PropertySale",
      "type": "event"
    },
    {
      "inputs": [
        {
          "internalType": "uint256",
          "name": "_propertyId",
          "type": "uint256"
        }
      ],
      "name": "buyProperty",
      "outputs": [],
      "stateMutability": "payable",
      "type": "function"
    },
    {
      "inputs": [
        {
          "internalType": "uint256",
          "name": "_propertyId",
          "type": "uint256"
        }
      ],
      "name": "closeSale",
      "outputs": [],
      "stateMutability": "nonpayable",
      "type": "function"
    },
    {
      "inputs": [
        {
          "internalType": "string",
          "name": "_propertyAddress",
          "type": "string"
        },
        {
          "internalType": "uint256",
          "name": "_rentPrice",
          "type": "uint256"
        },
        {
          "internalType": "uint256",
          "name": "_price",
          "type": "uint256"
        }
      ],
      "name": "createProperty",
      "outputs": [],
      "stateMutability": "nonpayable",
      "type": "function"
    },
    {
      "inputs": [],
      "name": "isOwner",
      "outputs": [
        {
          "internalType": "bool",
          "name": "",
          "type": "bool"
        }
      ],
      "stateMutability": "view",
      "type": "function"
    },
    {
      "inputs": [
        {
          "internalType": "uint256",
          "name": "_propertyId",
          "type": "uint256"
        }
      ],
      "name": "openSale",
      "outputs": [],
      "stateMutability": "nonpayable",
      "type": "function"
    },
    {
      "inputs": [],
      "name": "owner",
      "outputs": [
        {
          "internalType": "address",
          "name": "",
          "type": "address"
        }
      ],
      "stateMutability": "view",
      "type": "function"
    },
    {
      "inputs": [
        {
          "internalType": "address",
          "name": "",
          "type": "address"
        }
      ],
      "name": "ownerPropertyCount",
      "outputs": [
        {
          "internalType": "uint256",
          "name": "",
          "type": "uint256"
        }
      ],
      "stateMutability": "view",
      "type": "function"
    },
    {
      "inputs": [
        {
          "internalType": "uint256",
          "name": "",
          "type": "uint256"
        }
      ],
      "name": "properties",
      "outputs": [
        {
          "internalType": "string",
          "name": "propertyAddress",
          "type": "string"
        },
        {
          "internalType": "address",
          "name": "owner",
          "type": "address"
        },
        {
          "internalType": "address",
          "name": "renter",
          "type": "address"
        },
        {
          "internalType": "uint256",
          "name": "rentPrice",
          "type": "uint256"
        },
        {
          "internalType": "uint256",
          "name": "rentDueTime",
          "type": "uint256"
        },
        {
          "internalType": "uint256",
          "name": "price",
          "type": "uint256"
        },
        {
          "internalType": "bool",
          "name": "forSale",
          "type": "bool"
        },
        {
          "internalType": "bool",
          "name": "forRent",
          "type": "bool"
        }
      ],
      "stateMutability": "view",
      "type": "function"
    },
    {
      "inputs": [
        {
          "internalType": "uint256",
          "name": "",
          "type": "uint256"
        }
      ],
      "name": "propertyToOwner",
      "outputs": [
        {
          "internalType": "address",
          "name": "",
          "type": "address"
        }
      ],
      "stateMutability": "view",
      "type": "function"
    },
    {
      "inputs": [],
      "name": "renounceOwnership",
      "outputs": [],
      "stateMutability": "nonpayable",
      "type": "function"
    },
    {
      "inputs": [
        {
          "internalType": "address",
          "name": "newOwner",
          "type": "address"
        }
      ],
      "name": "transferOwnership",
      "outputs": [],
      "stateMutability": "nonpayable",
      "type": "function"
    },
    {
      "inputs": [],
      "name": "withdraw",
      "outputs": [],
      "stateMutability": "nonpayable",
      "type": "function"
    },
    {
      "inputs": [
        {
          "internalType": "uint256",
          "name": "_propertyId",
          "type": "uint256"
        }
      ],
      "name": "openRent",
      "outputs": [],
      "stateMutability": "nonpayable",
      "type": "function"
    },
    {
      "inputs": [
        {
          "internalType": "uint256",
          "name": "_propertyId",
          "type": "uint256"
        }
      ],
      "name": "closeRent",
      "outputs": [],
      "stateMutability": "nonpayable",
      "type": "function"
    },
    {
      "inputs": [
        {
          "internalType": "uint256",
          "name": "_propertyId",
          "type": "uint256"
        }
      ],
      "name": "rentProperty",
      "outputs": [],
      "stateMutability": "nonpayable",
      "type": "function"
    },
    {
      "inputs": [
        {
          "internalType": "uint256",
          "name": "_propertyId",
          "type": "uint256"
        }
      ],
      "name": "payRent",
      "outputs": [],
      "stateMutability": "payable",
      "type": "function"
    }
  ],
  "bytecode": "0x608060405234801561001057600080fd5b50336000806101000a81548173ffffffffffffffffffffffffffffffffffffffff021916908373ffffffffffffffffffffffffffffffffffffffff16021790555060008054906101000a900473ffffffffffffffffffffffffffffffffffffffff1673ffffffffffffffffffffffffffffffffffffffff16600073ffffffffffffffffffffffffffffffffffffffff167f8be0079c531659141344cd1fd0a4f28419497f9722a3daafe3b4186f6b6457e060405160405180910390a3611d6f806100db6000396000f3fe6080604052600436106100f35760003560e01c806389cb8f6d1161008a578063a4223d5311610059578063a4223d53146102df578063d9e8843f14610308578063f2fde38b14610324578063f7b108081461034d576100f3565b806389cb8f6d146102235780638da5cb5b146102605780638f32d59b1461028b5780639d36ab6c146102b6576100f3565b80633ccfd60b116100c65780633ccfd60b146101b05780634f2362f8146101c75780636fa830a6146101f0578063715018a61461020c576100f3565b80630b56e383146100f857806321319ebd146101355780632502bfad1461015e57806334ec740a14610187575b600080fd5b34801561010457600080fd5b5061011f600480360381019061011a919061150d565b610391565b60405161012c919061157b565b60405180910390f35b34801561014157600080fd5b5061015c600480360381019061015791906116dc565b6103c4565b005b34801561016a57600080fd5b506101856004803603810190610180919061150d565b610678565b005b34801561019357600080fd5b506101ae60048036038101906101a9919061150d565b610799565b005b3480156101bc57600080fd5b506101c56108ba565b005b3480156101d357600080fd5b506101ee60048036038101906101e9919061150d565b610921565b005b61020a6004803603810190610205919061150d565b610a05565b005b34801561021857600080fd5b50610221610c7c565b005b34801561022f57600080fd5b5061024a60048036038101906102459190611777565b610d4b565b60405161025791906117b3565b60405180910390f35b34801561026c57600080fd5b50610275610d63565b604051610282919061157b565b60405180910390f35b34801561029757600080fd5b506102a0610d8c565b6040516102ad91906117e9565b60405180910390f35b3480156102c257600080fd5b506102dd60048036038101906102d8919061150d565b610de3565b005b3480156102eb57600080fd5b506103066004803603810190610301919061150d565b610f2f565b005b610322600480360381019061031d919061150d565b61108e565b005b34801561033057600080fd5b5061034b60048036038101906103469190611777565b6111b5565b005b34801561035957600080fd5b50610374600480360381019061036f919061150d565b6111d2565b60405161038898979695949392919061188c565b60405180910390f35b60026020528060005260406000206000915054906101000a900473ffffffffffffffffffffffffffffffffffffffff1681565b6103cc610d8c565b6103d557600080fd5b60016040518061010001604052808581526020013373ffffffffffffffffffffffffffffffffffffffff168152602001600073ffffffffffffffffffffffffffffffffffffffff16815260200184815260200160008152602001838152602001600015158152602001600015158152509080600181540180825580915050600190039060005260206000209060070201600090919091909150600082015181600001908051906020019061048a929190611420565b5060208201518160010160006101000a81548173ffffffffffffffffffffffffffffffffffffffff021916908373ffffffffffffffffffffffffffffffffffffffff16021790555060408201518160020160006101000a81548173ffffffffffffffffffffffffffffffffffffffff021916908373ffffffffffffffffffffffffffffffffffffffff160217905550606082015181600301556080820151816004015560a0820151816005015560c08201518160060160006101000a81548160ff02191690831515021790555060e08201518160060160016101000a81548160ff021916908315150217905550505060006001808054905061058c9190611940565b9050336002600083815260200190815260200160002060006101000a81548173ffffffffffffffffffffffffffffffffffffffff021916908373ffffffffffffffffffffffffffffffffffffffff160217905550600360003373ffffffffffffffffffffffffffffffffffffffff1673ffffffffffffffffffffffffffffffffffffffff168152602001908152602001600020600081548092919061063090611974565b91905055507f0ba21c34efe7807eef79f225cf4b033c6eaa6d9643be08a83bd574df6279564e8185858560405161066a94939291906119bd565b60405180910390a150505050565b806002600082815260200190815260200160002060009054906101000a900473ffffffffffffffffffffffffffffffffffffffff1673ffffffffffffffffffffffffffffffffffffffff163373ffffffffffffffffffffffffffffffffffffffff161461071a576040517f08c379a000000000000000000000000000000000000000000000000000000000815260040161071190611a55565b60405180910390fd5b6000600183815481106107305761072f611a75565b5b906000526020600020906007020160060160006101000a81548160ff021916908315150217905550600180838154811061076d5761076c611a75565b5b906000526020600020906007020160060160016101000a81548160ff0219169083151502179055505050565b806002600082815260200190815260200160002060009054906101000a900473ffffffffffffffffffffffffffffffffffffffff1673ffffffffffffffffffffffffffffffffffffffff163373ffffffffffffffffffffffffffffffffffffffff161461083b576040517f08c379a000000000000000000000000000000000000000000000000000000000815260040161083290611a55565b60405180910390fd5b60006001838154811061085157610850611a75565b5b906000526020600020906007020160060160016101000a81548160ff021916908315150217905550600180838154811061088e5761088d611a75565b5b906000526020600020906007020160060160006101000a81548160ff0219169083151502179055505050565b6108c2610d8c565b6108cb57600080fd5b60006108d5610d63565b90508073ffffffffffffffffffffffffffffffffffffffff166108fc479081150290604051600060405180830381858888f1935050505015801561091d573d6000803e3d6000fd5b5050565b806002600082815260200190815260200160002060009054906101000a900473ffffffffffffffffffffffffffffffffffffffff1673ffffffffffffffffffffffffffffffffffffffff163373ffffffffffffffffffffffffffffffffffffffff16146109c3576040517f08c379a00000000000000000000000000000000000000000000000000000000081526004016109ba90611a55565b60405180910390fd5b6000600183815481106109d9576109d8611a75565b5b906000526020600020906007020160060160016101000a81548160ff0219169083151502179055505050565b806001151560018281548110610a1e57610a1d611a75565b5b906000526020600020906007020160060160009054906101000a900460ff16151514610a7f576040517f08c379a0000000000000000000000000000000000000000000000000000000008152600401610a7690611af0565b60405180910390fd5b610aad60018381548110610a9657610a95611a75565b5b90600052602060002090600702016005015461130c565b3414610aee576040517f08c379a0000000000000000000000000000000000000000000000000000000008152600401610ae590611b5c565b60405180910390fd5b600360006002600085815260200190815260200160002060009054906101000a900473ffffffffffffffffffffffffffffffffffffffff1673ffffffffffffffffffffffffffffffffffffffff1673ffffffffffffffffffffffffffffffffffffffff1681526020019081526020016000206000815480929190610b7190611b7c565b9190505550600360003373ffffffffffffffffffffffffffffffffffffffff1673ffffffffffffffffffffffffffffffffffffffff1681526020019081526020016000206000815480929190610bc690611974565b9190505550336002600084815260200190815260200160002060006101000a81548173ffffffffffffffffffffffffffffffffffffffff021916908373ffffffffffffffffffffffffffffffffffffffff160217905550813373ffffffffffffffffffffffffffffffffffffffff163073ffffffffffffffffffffffffffffffffffffffff167f1557748ac436e48fc9e42a4525d2524bb70b09fe8315ccf0f653061649241a5860405160405180910390a45050565b610c84610d8c565b610c8d57600080fd5b600073ffffffffffffffffffffffffffffffffffffffff1660008054906101000a900473ffffffffffffffffffffffffffffffffffffffff1673ffffffffffffffffffffffffffffffffffffffff167f8be0079c531659141344cd1fd0a4f28419497f9722a3daafe3b4186f6b6457e060405160405180910390a360008060006101000a81548173ffffffffffffffffffffffffffffffffffffffff021916908373ffffffffffffffffffffffffffffffffffffffff160217905550565b60036020528060005260406000206000915090505481565b60008060009054906101000a900473ffffffffffffffffffffffffffffffffffffffff16905090565b60008060009054906101000a900473ffffffffffffffffffffffffffffffffffffffff1673ffffffffffffffffffffffffffffffffffffffff163373ffffffffffffffffffffffffffffffffffffffff1614905090565b806001151560018281548110610dfc57610dfb611a75565b5b906000526020600020906007020160060160019054906101000a900460ff16151514610e5d576040517f08c379a0000000000000000000000000000000000000000000000000000000008152600401610e5490611af0565b60405180910390fd5b3360018381548110610e7257610e71611a75565b5b906000526020600020906007020160020160006101000a81548173ffffffffffffffffffffffffffffffffffffffff021916908373ffffffffffffffffffffffffffffffffffffffff160217905550600060018381548110610ed757610ed6611a75565b5b906000526020600020906007020160060160016101000a81548160ff0219169083151502179055507fe8c6d9034d14409f48bb94639f497cf64154edb7e9a07197ec1630b0b4d06a4260405160405180910390a15050565b806002600082815260200190815260200160002060009054906101000a900473ffffffffffffffffffffffffffffffffffffffff1673ffffffffffffffffffffffffffffffffffffffff163373ffffffffffffffffffffffffffffffffffffffff1614610fd1576040517f08c379a0000000000000000000000000000000000000000000000000000000008152600401610fc890611a55565b60405180910390fd5b816001151560018281548110610fea57610fe9611a75565b5b906000526020600020906007020160060160009054906101000a900460ff1615151461104b576040517f08c379a000000000000000000000000000000000000000000000000000000000815260040161104290611af0565b60405180910390fd5b60006001848154811061106157611060611a75565b5b906000526020600020906007020160060160006101000a81548160ff021916908315150217905550505050565b803373ffffffffffffffffffffffffffffffffffffffff16600182815481106110ba576110b9611a75565b5b906000526020600020906007020160020160009054906101000a900473ffffffffffffffffffffffffffffffffffffffff1673ffffffffffffffffffffffffffffffffffffffff1614611142576040517f08c379a000000000000000000000000000000000000000000000000000000000815260040161113990611bf2565b60405180910390fd5b6111706001838154811061115957611158611a75565b5b90600052602060002090600702016003015461130c565b34146111b1576040517f08c379a00000000000000000000000000000000000000000000000000000000081526004016111a890611c5e565b60405180910390fd5b5050565b6111bd610d8c565b6111c657600080fd5b6111cf81611329565b50565b600181815481106111e257600080fd5b906000526020600020906007020160009150905080600001805461120590611cad565b80601f016020809104026020016040519081016040528092919081815260200182805461123190611cad565b801561127e5780601f106112535761010080835404028352916020019161127e565b820191906000526020600020905b81548152906001019060200180831161126157829003601f168201915b5050505050908060010160009054906101000a900473ffffffffffffffffffffffffffffffffffffffff16908060020160009054906101000a900473ffffffffffffffffffffffffffffffffffffffff16908060030154908060040154908060050154908060060160009054906101000a900460ff16908060060160019054906101000a900460ff16905088565b6000670de0b6b3a7640000826113229190611cdf565b9050919050565b600073ffffffffffffffffffffffffffffffffffffffff168173ffffffffffffffffffffffffffffffffffffffff16141561136357600080fd5b8073ffffffffffffffffffffffffffffffffffffffff1660008054906101000a900473ffffffffffffffffffffffffffffffffffffffff1673ffffffffffffffffffffffffffffffffffffffff167f8be0079c531659141344cd1fd0a4f28419497f9722a3daafe3b4186f6b6457e060405160405180910390a3806000806101000a81548173ffffffffffffffffffffffffffffffffffffffff021916908373ffffffffffffffffffffffffffffffffffffffff16021790555050565b82805461142c90611cad565b90600052602060002090601f01602090048101928261144e5760008555611495565b82601f1061146757805160ff1916838001178555611495565b82800160010185558215611495579182015b82811115611494578251825591602001919060010190611479565b5b5090506114a291906114a6565b5090565b5b808211156114bf5760008160009055506001016114a7565b5090565b6000604051905090565b600080fd5b600080fd5b6000819050919050565b6114ea816114d7565b81146114f557600080fd5b50565b600081359050611507816114e1565b92915050565b600060208284031215611523576115226114cd565b5b6000611531848285016114f8565b91505092915050565b600073ffffffffffffffffffffffffffffffffffffffff82169050919050565b60006115658261153a565b9050919050565b6115758161155a565b82525050565b6000602082019050611590600083018461156c565b92915050565b600080fd5b600080fd5b6000601f19601f8301169050919050565b7f4e487b7100000000000000000000000000000000000000000000000000000000600052604160045260246000fd5b6115e9826115a0565b810181811067ffffffffffffffff82111715611608576116076115b1565b5b80604052505050565b600061161b6114c3565b905061162782826115e0565b919050565b600067ffffffffffffffff821115611647576116466115b1565b5b611650826115a0565b9050602081019050919050565b82818337600083830152505050565b600061167f61167a8461162c565b611611565b90508281526020810184848401111561169b5761169a61159b565b5b6116a684828561165d565b509392505050565b600082601f8301126116c3576116c2611596565b5b81356116d384826020860161166c565b91505092915050565b6000806000606084860312156116f5576116f46114cd565b5b600084013567ffffffffffffffff811115611713576117126114d2565b5b61171f868287016116ae565b9350506020611730868287016114f8565b9250506040611741868287016114f8565b9150509250925092565b6117548161155a565b811461175f57600080fd5b50565b6000813590506117718161174b565b92915050565b60006020828403121561178d5761178c6114cd565b5b600061179b84828501611762565b91505092915050565b6117ad816114d7565b82525050565b60006020820190506117c860008301846117a4565b92915050565b60008115159050919050565b6117e3816117ce565b82525050565b60006020820190506117fe60008301846117da565b92915050565b600081519050919050565b600082825260208201905092915050565b60005b8381101561183e578082015181840152602081019050611823565b8381111561184d576000848401525b50505050565b600061185e82611804565b611868818561180f565b9350611878818560208601611820565b611881816115a0565b840191505092915050565b60006101008201905081810360008301526118a7818b611853565b90506118b6602083018a61156c565b6118c3604083018961156c565b6118d060608301886117a4565b6118dd60808301876117a4565b6118ea60a08301866117a4565b6118f760c08301856117da565b61190460e08301846117da565b9998505050505050505050565b7f4e487b7100000000000000000000000000000000000000000000000000000000600052601160045260246000fd5b600061194b826114d7565b9150611956836114d7565b92508282101561196957611968611911565b5b828203905092915050565b600061197f826114d7565b91507fffffffffffffffffffffffffffffffffffffffffffffffffffffffffffffffff8214156119b2576119b1611911565b5b600182019050919050565b60006080820190506119d260008301876117a4565b81810360208301526119e48186611853565b90506119f360408301856117a4565b611a0060608301846117a4565b95945050505050565b7f4d757374206f776e20746869732070726f706572747900000000000000000000600082015250565b6000611a3f60168361180f565b9150611a4a82611a09565b602082019050919050565b60006020820190508181036000830152611a6e81611a32565b9050919050565b7f4e487b7100000000000000000000000000000000000000000000000000000000600052603260045260246000fd5b7f4e6f7420666f722053616c650000000000000000000000000000000000000000600082015250565b6000611ada600c8361180f565b9150611ae582611aa4565b602082019050919050565b60006020820190508181036000830152611b0981611acd565b9050919050565b7f496e636f727265637420707269636520696e7075747465640000000000000000600082015250565b6000611b4660188361180f565b9150611b5182611b10565b602082019050919050565b60006020820190508181036000830152611b7581611b39565b9050919050565b6000611b87826114d7565b91506000821415611b9b57611b9a611911565b5b600182039050919050565b7f4e6f742072656e74657200000000000000000000000000000000000000000000600082015250565b6000611bdc600a8361180f565b9150611be782611ba6565b602082019050919050565b60006020820190508181036000830152611c0b81611bcf565b9050919050565b7f496e636f72726563742072656e7420707269636520696e707574746564000000600082015250565b6000611c48601d8361180f565b9150611c5382611c12565b602082019050919050565b60006020820190508181036000830152611c7781611c3b565b9050919050565b7f4e487b7100000000000000000000000000000000000000000000000000000000600052602260045260246000fd5b60006002820490506001821680611cc557607f821691505b60208210811415611cd957611cd8611c7e565b5b50919050565b6000611cea826114d7565b9150611cf5836114d7565b9250817fffffffffffffffffffffffffffffffffffffffffffffffffffffffffffffffff0483118215151615611d2e57611d2d611911565b5b82820290509291505056fea26469706673582212206ebd2fe89966cd4dd033267387ded9fab43ead649001fa2f6870130fdc46226864736f6c634300080a0033",
  "immutableReferences": {},
  "source": "// SPDX-License-Identifier: MIT\npragma solidity >=0.7.0 <0.9.0;\n\nimport \"./gypsysale.sol\";\n\ncontract GypsyRent is GypsySale {\n  \n  event PropertyRented();\n\n  modifier forRent(uint _propertyId) {\n    require(properties[_propertyId].forRent == true, \"Not for Sale\");\n    _;\n  }\n\n  modifier isRenter(uint _propertyId) {\n    require(properties[_propertyId].renter == msg.sender, \"Not renter\");\n    _;\n  }\n\n  function openRent(uint _propertyId) external onlyOwnerOf(_propertyId) {\n    properties[_propertyId].forSale = false;\n    properties[_propertyId].forRent = true;\n  }\n\n  function closeRent(uint _propertyId) external onlyOwnerOf(_propertyId) {\n    properties[_propertyId].forRent = false;\n  }\n\n  function rentProperty(uint _propertyId) external forRent(_propertyId) {\n    properties[_propertyId].renter = msg.sender;\n    properties[_propertyId].forRent = false;\n    emit PropertyRented();\n  }\n\n  function payRent(uint _propertyId) external payable isRenter(_propertyId) {\n    require(msg.value == _toWei(properties[_propertyId].rentPrice), \"Incorrect rent price inputted\");\n    //rent paid, do something\n  }\n\n}",
  "sourcePath": "/Users/JordanSun/Desktop/Gypsy/src/contracts/gypsyrent.sol",
  "compiler": {
    "name": "solc",
    "version": "0.8.10+commit.fc410830.Emscripten.clang"
  },
  "schemaVersion": "3.4.1",
  "updatedAt": "2021-12-06T06:53:02.433Z",
  "devdoc": {
    "kind": "dev",
    "methods": {
      "isOwner()": {
        "returns": {
          "_0": "true if `msg.sender` is the owner of the contract."
        }
      },
      "owner()": {
        "returns": {
          "_0": "the address of the owner."
        }
      },
      "renounceOwnership()": {
        "details": "Allows the current owner to relinquish control of the contract."
      },
      "transferOwnership(address)": {
        "details": "Allows the current owner to transfer control of the contract to a newOwner.",
        "params": {
          "newOwner": "The address to transfer ownership to."
        }
      }
    },
    "version": 1
  },
  "userdoc": {
    "kind": "user",
    "methods": {
      "renounceOwnership()": {
        "notice": "Renouncing to ownership will leave the contract without an owner. It will not be possible to call the functions with the `onlyOwner` modifier anymore."
      }
    },
    "version": 1
  }
}