{
  "contractName": "GypsyModify",
  "abi": [
    {
      "anonymous": false,
      "inputs": [
        {
          "indexed": true,
          "internalType": "address",
          "name": "_owner",
          "type": "address"
        },
        {
          "indexed": true,
          "internalType": "address",
          "name": "_approved",
          "type": "address"
        },
        {
          "indexed": true,
          "internalType": "uint256",
          "name": "_tokenId",
          "type": "uint256"
        }
      ],
      "name": "Approval",
      "type": "event"
    },
    {
      "anonymous": false,
      "inputs": [
        {
          "indexed": false,
          "internalType": "uint256",
          "name": "propertyId",
          "type": "uint256"
        },
        {
          "indexed": false,
          "internalType": "string",
          "name": "propertyAddress",
          "type": "string"
        },
        {
          "indexed": false,
          "internalType": "uint256",
          "name": "rentPrice",
          "type": "uint256"
        },
        {
          "indexed": false,
          "internalType": "uint256",
          "name": "price",
          "type": "uint256"
        }
      ],
      "name": "NewProperty",
      "type": "event"
    },
    {
      "anonymous": false,
      "inputs": [
        {
          "indexed": true,
          "internalType": "address",
          "name": "previousOwner",
          "type": "address"
        },
        {
          "indexed": true,
          "internalType": "address",
          "name": "newOwner",
          "type": "address"
        }
      ],
      "name": "OwnershipTransferred",
      "type": "event"
    },
    {
      "anonymous": false,
      "inputs": [],
      "name": "PropertyRented",
      "type": "event"
    },
    {
      "anonymous": false,
      "inputs": [
        {
          "indexed": true,
          "internalType": "address",
          "name": "_from",
          "type": "address"
        },
        {
          "indexed": true,
          "internalType": "address",
          "name": "_to",
          "type": "address"
        },
        {
          "indexed": true,
          "internalType": "uint256",
          "name": "_tokenId",
          "type": "uint256"
        }
      ],
      "name": "PropertySale",
      "type": "event"
    },
    {
      "anonymous": false,
      "inputs": [
        {
          "indexed": true,
          "internalType": "address",
          "name": "_from",
          "type": "address"
        },
        {
          "indexed": true,
          "internalType": "address",
          "name": "_to",
          "type": "address"
        },
        {
          "indexed": true,
          "internalType": "uint256",
          "name": "_tokenId",
          "type": "uint256"
        }
      ],
      "name": "Transfer",
      "type": "event"
    },
    {
      "inputs": [
        {
          "internalType": "address",
          "name": "_approved",
          "type": "address"
        },
        {
          "internalType": "uint256",
          "name": "_propertyId",
          "type": "uint256"
        }
      ],
      "name": "approve",
      "outputs": [],
      "stateMutability": "payable",
      "type": "function"
    },
    {
      "inputs": [
        {
          "internalType": "address",
          "name": "_owner",
          "type": "address"
        }
      ],
      "name": "balanceOf",
      "outputs": [
        {
          "internalType": "uint256",
          "name": "",
          "type": "uint256"
        }
      ],
      "stateMutability": "view",
      "type": "function"
    },
    {
      "inputs": [
        {
          "internalType": "uint256",
          "name": "_propertyId",
          "type": "uint256"
        }
      ],
      "name": "buyProperty",
      "outputs": [],
      "stateMutability": "payable",
      "type": "function"
    },
    {
      "inputs": [
        {
          "internalType": "uint256",
          "name": "_propertyId",
          "type": "uint256"
        }
      ],
      "name": "closeRent",
      "outputs": [],
      "stateMutability": "nonpayable",
      "type": "function"
    },
    {
      "inputs": [
        {
          "internalType": "uint256",
          "name": "_propertyId",
          "type": "uint256"
        }
      ],
      "name": "closeSale",
      "outputs": [],
      "stateMutability": "nonpayable",
      "type": "function"
    },
    {
      "inputs": [
        {
          "internalType": "string",
          "name": "_propertyAddress",
          "type": "string"
        },
        {
          "internalType": "uint256",
          "name": "_rentPrice",
          "type": "uint256"
        },
        {
          "internalType": "uint256",
          "name": "_price",
          "type": "uint256"
        }
      ],
      "name": "createProperty",
      "outputs": [],
      "stateMutability": "nonpayable",
      "type": "function"
    },
    {
      "inputs": [],
      "name": "isOwner",
      "outputs": [
        {
          "internalType": "bool",
          "name": "",
          "type": "bool"
        }
      ],
      "stateMutability": "view",
      "type": "function"
    },
    {
      "inputs": [
        {
          "internalType": "uint256",
          "name": "_propertyId",
          "type": "uint256"
        }
      ],
      "name": "openRent",
      "outputs": [],
      "stateMutability": "nonpayable",
      "type": "function"
    },
    {
      "inputs": [
        {
          "internalType": "uint256",
          "name": "_propertyId",
          "type": "uint256"
        }
      ],
      "name": "openSale",
      "outputs": [],
      "stateMutability": "nonpayable",
      "type": "function"
    },
    {
      "inputs": [],
      "name": "owner",
      "outputs": [
        {
          "internalType": "address",
          "name": "",
          "type": "address"
        }
      ],
      "stateMutability": "view",
      "type": "function"
    },
    {
      "inputs": [
        {
          "internalType": "uint256",
          "name": "_propertyId",
          "type": "uint256"
        }
      ],
      "name": "ownerOf",
      "outputs": [
        {
          "internalType": "address",
          "name": "",
          "type": "address"
        }
      ],
      "stateMutability": "view",
      "type": "function"
    },
    {
      "inputs": [
        {
          "internalType": "address",
          "name": "",
          "type": "address"
        }
      ],
      "name": "ownerPropertyCount",
      "outputs": [
        {
          "internalType": "uint256",
          "name": "",
          "type": "uint256"
        }
      ],
      "stateMutability": "view",
      "type": "function"
    },
    {
      "inputs": [
        {
          "internalType": "uint256",
          "name": "_propertyId",
          "type": "uint256"
        }
      ],
      "name": "payRent",
      "outputs": [],
      "stateMutability": "payable",
      "type": "function"
    },
    {
      "inputs": [
        {
          "internalType": "uint256",
          "name": "",
          "type": "uint256"
        }
      ],
      "name": "properties",
      "outputs": [
        {
          "internalType": "string",
          "name": "propertyAddress",
          "type": "string"
        },
        {
          "internalType": "address",
          "name": "owner",
          "type": "address"
        },
        {
          "internalType": "address",
          "name": "renter",
          "type": "address"
        },
        {
          "internalType": "uint256",
          "name": "rentPrice",
          "type": "uint256"
        },
        {
          "internalType": "uint256",
          "name": "rentDueTime",
          "type": "uint256"
        },
        {
          "internalType": "uint256",
          "name": "price",
          "type": "uint256"
        },
        {
          "internalType": "bool",
          "name": "forSale",
          "type": "bool"
        },
        {
          "internalType": "bool",
          "name": "forRent",
          "type": "bool"
        }
      ],
      "stateMutability": "view",
      "type": "function"
    },
    {
      "inputs": [
        {
          "internalType": "uint256",
          "name": "",
          "type": "uint256"
        }
      ],
      "name": "propertyToOwner",
      "outputs": [
        {
          "internalType": "address",
          "name": "",
          "type": "address"
        }
      ],
      "stateMutability": "view",
      "type": "function"
    },
    {
      "inputs": [],
      "name": "renounceOwnership",
      "outputs": [],
      "stateMutability": "nonpayable",
      "type": "function"
    },
    {
      "inputs": [
        {
          "internalType": "uint256",
          "name": "_propertyId",
          "type": "uint256"
        }
      ],
      "name": "rentProperty",
      "outputs": [],
      "stateMutability": "nonpayable",
      "type": "function"
    },
    {
      "inputs": [
        {
          "internalType": "address",
          "name": "_from",
          "type": "address"
        },
        {
          "internalType": "address",
          "name": "_to",
          "type": "address"
        },
        {
          "internalType": "uint256",
          "name": "_propertyId",
          "type": "uint256"
        }
      ],
      "name": "transferFrom",
      "outputs": [],
      "stateMutability": "nonpayable",
      "type": "function"
    },
    {
      "inputs": [
        {
          "internalType": "address",
          "name": "newOwner",
          "type": "address"
        }
      ],
      "name": "transferOwnership",
      "outputs": [],
      "stateMutability": "nonpayable",
      "type": "function"
    },
    {
      "inputs": [],
      "name": "withdraw",
      "outputs": [],
      "stateMutability": "nonpayable",
      "type": "function"
    },
    {
      "inputs": [
        {
          "internalType": "uint256",
          "name": "_propertyId",
          "type": "uint256"
        },
        {
          "internalType": "string",
          "name": "_newAddress",
          "type": "string"
        }
      ],
      "name": "changePropertyAddress",
      "outputs": [],
      "stateMutability": "nonpayable",
      "type": "function"
    },
    {
      "inputs": [
        {
          "internalType": "uint256",
          "name": "_propertyId",
          "type": "uint256"
        },
        {
          "internalType": "uint256",
          "name": "_newPrice",
          "type": "uint256"
        }
      ],
      "name": "changePrice",
      "outputs": [],
      "stateMutability": "nonpayable",
      "type": "function"
    },
    {
      "inputs": [
        {
          "internalType": "uint256",
          "name": "_propertyId",
          "type": "uint256"
        },
        {
          "internalType": "uint256",
          "name": "_newRentPrice",
          "type": "uint256"
        }
      ],
      "name": "changeRentPrice",
      "outputs": [],
      "stateMutability": "nonpayable",
      "type": "function"
    },
    {
      "inputs": [
        {
          "internalType": "address",
          "name": "_owner",
          "type": "address"
        }
      ],
      "name": "getPropertiesByOwner",
      "outputs": [
        {
          "internalType": "uint256[]",
          "name": "",
          "type": "uint256[]"
        }
      ],
      "stateMutability": "view",
      "type": "function"
    }
  ],
  "bytecode": "0x608060405234801561001057600080fd5b50336000806101000a81548173ffffffffffffffffffffffffffffffffffffffff021916908373ffffffffffffffffffffffffffffffffffffffff16021790555060008054906101000a900473ffffffffffffffffffffffffffffffffffffffff1673ffffffffffffffffffffffffffffffffffffffff16600073ffffffffffffffffffffffffffffffffffffffff167f8be0079c531659141344cd1fd0a4f28419497f9722a3daafe3b4186f6b6457e060405160405180910390a3612a23806100db6000396000f3fe60806040526004361061014b5760003560e01c806370a08231116100b65780639fcb27481161006f5780639fcb274814610448578063a4223d5314610485578063b3de019c146104ae578063d9e8843f146104d7578063f2fde38b146104f3578063f7b108081461051c5761014b565b806370a0823114610338578063715018a61461037557806389cb8f6d1461038c5780638da5cb5b146103c95780638f32d59b146103f45780639d36ab6c1461041f5761014b565b806334ec740a1161010857806334ec740a1461024d5780633ccfd60b146102765780634f2362f81461028d5780636114665e146102b65780636352211e146102df5780636fa830a61461031c5761014b565b8063078e490614610150578063095ea7b3146101795780630b56e3831461019557806321319ebd146101d257806323b872dd146101fb5780632502bfad14610224575b600080fd5b34801561015c57600080fd5b5061017760048036038101906101729190611fb3565b610560565b005b610193600480360381019061018e9190612071565b61063d565b005b3480156101a157600080fd5b506101bc60048036038101906101b791906120b1565b610791565b6040516101c991906120ed565b60405180910390f35b3480156101de57600080fd5b506101f960048036038101906101f49190612249565b6107c4565b005b34801561020757600080fd5b50610222600480360381019061021d91906122b8565b610a78565b005b34801561023057600080fd5b5061024b600480360381019061024691906120b1565b610b5c565b005b34801561025957600080fd5b50610274600480360381019061026f91906120b1565b610c7d565b005b34801561028257600080fd5b5061028b610d9e565b005b34801561029957600080fd5b506102b460048036038101906102af91906120b1565b610e05565b005b3480156102c257600080fd5b506102dd60048036038101906102d8919061230b565b610ee9565b005b3480156102eb57600080fd5b50610306600480360381019061030191906120b1565b610fba565b60405161031391906120ed565b60405180910390f35b610336600480360381019061033191906120b1565b610ff7565b005b34801561034457600080fd5b5061035f600480360381019061035a919061234b565b61126e565b60405161036c9190612387565b60405180910390f35b34801561038157600080fd5b5061038a6112b7565b005b34801561039857600080fd5b506103b360048036038101906103ae919061234b565b611386565b6040516103c09190612387565b60405180910390f35b3480156103d557600080fd5b506103de61139e565b6040516103eb91906120ed565b60405180910390f35b34801561040057600080fd5b506104096113c7565b60405161041691906123bd565b60405180910390f35b34801561042b57600080fd5b50610446600480360381019061044191906120b1565b61141e565b005b34801561045457600080fd5b5061046f600480360381019061046a919061234b565b61156a565b60405161047c9190612496565b60405180910390f35b34801561049157600080fd5b506104ac60048036038101906104a791906120b1565b6116bd565b005b3480156104ba57600080fd5b506104d560048036038101906104d0919061230b565b61181c565b005b6104f160048036038101906104ec91906120b1565b6118ed565b005b3480156104ff57600080fd5b5061051a6004803603810190610515919061234b565b611a14565b005b34801561052857600080fd5b50610543600480360381019061053e91906120b1565b611a31565b604051610557989796959493929190612540565b60405180910390f35b826002600082815260200190815260200160002060009054906101000a900473ffffffffffffffffffffffffffffffffffffffff1673ffffffffffffffffffffffffffffffffffffffff163373ffffffffffffffffffffffffffffffffffffffff1614610602576040517f08c379a00000000000000000000000000000000000000000000000000000000081526004016105f990612611565b60405180910390fd5b82826001868154811061061857610617612631565b5b90600052602060002090600702016000019190610636929190611ddb565b5050505050565b806002600082815260200190815260200160002060009054906101000a900473ffffffffffffffffffffffffffffffffffffffff1673ffffffffffffffffffffffffffffffffffffffff163373ffffffffffffffffffffffffffffffffffffffff16146106df576040517f08c379a00000000000000000000000000000000000000000000000000000000081526004016106d690612611565b60405180910390fd5b826004600084815260200190815260200160002060006101000a81548173ffffffffffffffffffffffffffffffffffffffff021916908373ffffffffffffffffffffffffffffffffffffffff160217905550818373ffffffffffffffffffffffffffffffffffffffff163373ffffffffffffffffffffffffffffffffffffffff167f8c5be1e5ebec7d5bd14f71427d1e84f3dd0314c0f7b2291e5b200ac8c7c3b92560405160405180910390a4505050565b60026020528060005260406000206000915054906101000a900473ffffffffffffffffffffffffffffffffffffffff1681565b6107cc6113c7565b6107d557600080fd5b60016040518061010001604052808581526020013373ffffffffffffffffffffffffffffffffffffffff168152602001600073ffffffffffffffffffffffffffffffffffffffff16815260200184815260200160008152602001838152602001600015158152602001600015158152509080600181540180825580915050600190039060005260206000209060070201600090919091909150600082015181600001908051906020019061088a929190611e61565b5060208201518160010160006101000a81548173ffffffffffffffffffffffffffffffffffffffff021916908373ffffffffffffffffffffffffffffffffffffffff16021790555060408201518160020160006101000a81548173ffffffffffffffffffffffffffffffffffffffff021916908373ffffffffffffffffffffffffffffffffffffffff160217905550606082015181600301556080820151816004015560a0820151816005015560c08201518160060160006101000a81548160ff02191690831515021790555060e08201518160060160016101000a81548160ff021916908315150217905550505060006001808054905061098c919061268f565b9050336002600083815260200190815260200160002060006101000a81548173ffffffffffffffffffffffffffffffffffffffff021916908373ffffffffffffffffffffffffffffffffffffffff160217905550600360003373ffffffffffffffffffffffffffffffffffffffff1673ffffffffffffffffffffffffffffffffffffffff1681526020019081526020016000206000815480929190610a30906126c3565b91905055507f0ba21c34efe7807eef79f225cf4b033c6eaa6d9643be08a83bd574df6279564e81858585604051610a6a949392919061270c565b60405180910390a150505050565b3373ffffffffffffffffffffffffffffffffffffffff166002600083815260200190815260200160002060009054906101000a900473ffffffffffffffffffffffffffffffffffffffff1673ffffffffffffffffffffffffffffffffffffffff161480610b4357503373ffffffffffffffffffffffffffffffffffffffff166004600083815260200190815260200160002060009054906101000a900473ffffffffffffffffffffffffffffffffffffffff1673ffffffffffffffffffffffffffffffffffffffff16145b610b4c57600080fd5b610b57838383611b6b565b505050565b806002600082815260200190815260200160002060009054906101000a900473ffffffffffffffffffffffffffffffffffffffff1673ffffffffffffffffffffffffffffffffffffffff163373ffffffffffffffffffffffffffffffffffffffff1614610bfe576040517f08c379a0000000000000000000000000000000000000000000000000000000008152600401610bf590612611565b60405180910390fd5b600060018381548110610c1457610c13612631565b5b906000526020600020906007020160060160006101000a81548160ff0219169083151502179055506001808381548110610c5157610c50612631565b5b906000526020600020906007020160060160016101000a81548160ff0219169083151502179055505050565b806002600082815260200190815260200160002060009054906101000a900473ffffffffffffffffffffffffffffffffffffffff1673ffffffffffffffffffffffffffffffffffffffff163373ffffffffffffffffffffffffffffffffffffffff1614610d1f576040517f08c379a0000000000000000000000000000000000000000000000000000000008152600401610d1690612611565b60405180910390fd5b600060018381548110610d3557610d34612631565b5b906000526020600020906007020160060160016101000a81548160ff0219169083151502179055506001808381548110610d7257610d71612631565b5b906000526020600020906007020160060160006101000a81548160ff0219169083151502179055505050565b610da66113c7565b610daf57600080fd5b6000610db961139e565b90508073ffffffffffffffffffffffffffffffffffffffff166108fc479081150290604051600060405180830381858888f19350505050158015610e01573d6000803e3d6000fd5b5050565b806002600082815260200190815260200160002060009054906101000a900473ffffffffffffffffffffffffffffffffffffffff1673ffffffffffffffffffffffffffffffffffffffff163373ffffffffffffffffffffffffffffffffffffffff1614610ea7576040517f08c379a0000000000000000000000000000000000000000000000000000000008152600401610e9e90612611565b60405180910390fd5b600060018381548110610ebd57610ebc612631565b5b906000526020600020906007020160060160016101000a81548160ff0219169083151502179055505050565b816002600082815260200190815260200160002060009054906101000a900473ffffffffffffffffffffffffffffffffffffffff1673ffffffffffffffffffffffffffffffffffffffff163373ffffffffffffffffffffffffffffffffffffffff1614610f8b576040517f08c379a0000000000000000000000000000000000000000000000000000000008152600401610f8290612611565b60405180910390fd5b8160018481548110610fa057610f9f612631565b5b906000526020600020906007020160030181905550505050565b60006002600083815260200190815260200160002060009054906101000a900473ffffffffffffffffffffffffffffffffffffffff169050919050565b8060011515600182815481106110105761100f612631565b5b906000526020600020906007020160060160009054906101000a900460ff16151514611071576040517f08c379a0000000000000000000000000000000000000000000000000000000008152600401611068906127a4565b60405180910390fd5b61109f6001838154811061108857611087612631565b5b906000526020600020906007020160050154611cc7565b34146110e0576040517f08c379a00000000000000000000000000000000000000000000000000000000081526004016110d790612810565b60405180910390fd5b600360006002600085815260200190815260200160002060009054906101000a900473ffffffffffffffffffffffffffffffffffffffff1673ffffffffffffffffffffffffffffffffffffffff1673ffffffffffffffffffffffffffffffffffffffff168152602001908152602001600020600081548092919061116390612830565b9190505550600360003373ffffffffffffffffffffffffffffffffffffffff1673ffffffffffffffffffffffffffffffffffffffff16815260200190815260200160002060008154809291906111b8906126c3565b9190505550336002600084815260200190815260200160002060006101000a81548173ffffffffffffffffffffffffffffffffffffffff021916908373ffffffffffffffffffffffffffffffffffffffff160217905550813373ffffffffffffffffffffffffffffffffffffffff163073ffffffffffffffffffffffffffffffffffffffff167f1557748ac436e48fc9e42a4525d2524bb70b09fe8315ccf0f653061649241a5860405160405180910390a45050565b6000600360008373ffffffffffffffffffffffffffffffffffffffff1673ffffffffffffffffffffffffffffffffffffffff168152602001908152602001600020549050919050565b6112bf6113c7565b6112c857600080fd5b600073ffffffffffffffffffffffffffffffffffffffff1660008054906101000a900473ffffffffffffffffffffffffffffffffffffffff1673ffffffffffffffffffffffffffffffffffffffff167f8be0079c531659141344cd1fd0a4f28419497f9722a3daafe3b4186f6b6457e060405160405180910390a360008060006101000a81548173ffffffffffffffffffffffffffffffffffffffff021916908373ffffffffffffffffffffffffffffffffffffffff160217905550565b60036020528060005260406000206000915090505481565b60008060009054906101000a900473ffffffffffffffffffffffffffffffffffffffff16905090565b60008060009054906101000a900473ffffffffffffffffffffffffffffffffffffffff1673ffffffffffffffffffffffffffffffffffffffff163373ffffffffffffffffffffffffffffffffffffffff1614905090565b80600115156001828154811061143757611436612631565b5b906000526020600020906007020160060160019054906101000a900460ff16151514611498576040517f08c379a000000000000000000000000000000000000000000000000000000000815260040161148f906127a4565b60405180910390fd5b33600183815481106114ad576114ac612631565b5b906000526020600020906007020160020160006101000a81548173ffffffffffffffffffffffffffffffffffffffff021916908373ffffffffffffffffffffffffffffffffffffffff16021790555060006001838154811061151257611511612631565b5b906000526020600020906007020160060160016101000a81548160ff0219169083151502179055507fe8c6d9034d14409f48bb94639f497cf64154edb7e9a07197ec1630b0b4d06a4260405160405180910390a15050565b60606000600360008473ffffffffffffffffffffffffffffffffffffffff1673ffffffffffffffffffffffffffffffffffffffff1681526020019081526020016000205467ffffffffffffffff8111156115c7576115c661211e565b5b6040519080825280602002602001820160405280156115f55781602001602082028036833780820191505090505b5090506000805b6001805490508110156116b2578473ffffffffffffffffffffffffffffffffffffffff166002600083815260200190815260200160002060009054906101000a900473ffffffffffffffffffffffffffffffffffffffff1673ffffffffffffffffffffffffffffffffffffffff16141561169f578083838151811061168457611683612631565b5b602002602001018181525050818061169b906126c3565b9250505b80806116aa906126c3565b9150506115fc565b508192505050919050565b806002600082815260200190815260200160002060009054906101000a900473ffffffffffffffffffffffffffffffffffffffff1673ffffffffffffffffffffffffffffffffffffffff163373ffffffffffffffffffffffffffffffffffffffff161461175f576040517f08c379a000000000000000000000000000000000000000000000000000000000815260040161175690612611565b60405180910390fd5b81600115156001828154811061177857611777612631565b5b906000526020600020906007020160060160009054906101000a900460ff161515146117d9576040517f08c379a00000000000000000000000000000000000000000000000000000000081526004016117d0906127a4565b60405180910390fd5b6000600184815481106117ef576117ee612631565b5b906000526020600020906007020160060160006101000a81548160ff021916908315150217905550505050565b816002600082815260200190815260200160002060009054906101000a900473ffffffffffffffffffffffffffffffffffffffff1673ffffffffffffffffffffffffffffffffffffffff163373ffffffffffffffffffffffffffffffffffffffff16146118be576040517f08c379a00000000000000000000000000000000000000000000000000000000081526004016118b590612611565b60405180910390fd5b81600184815481106118d3576118d2612631565b5b906000526020600020906007020160050181905550505050565b803373ffffffffffffffffffffffffffffffffffffffff166001828154811061191957611918612631565b5b906000526020600020906007020160020160009054906101000a900473ffffffffffffffffffffffffffffffffffffffff1673ffffffffffffffffffffffffffffffffffffffff16146119a1576040517f08c379a0000000000000000000000000000000000000000000000000000000008152600401611998906128a6565b60405180910390fd5b6119cf600183815481106119b8576119b7612631565b5b906000526020600020906007020160030154611cc7565b3414611a10576040517f08c379a0000000000000000000000000000000000000000000000000000000008152600401611a0790612912565b60405180910390fd5b5050565b611a1c6113c7565b611a2557600080fd5b611a2e81611ce4565b50565b60018181548110611a4157600080fd5b9060005260206000209060070201600091509050806000018054611a6490612961565b80601f0160208091040260200160405190810160405280929190818152602001828054611a9090612961565b8015611add5780601f10611ab257610100808354040283529160200191611add565b820191906000526020600020905b815481529060010190602001808311611ac057829003601f168201915b5050505050908060010160009054906101000a900473ffffffffffffffffffffffffffffffffffffffff16908060020160009054906101000a900473ffffffffffffffffffffffffffffffffffffffff16908060030154908060040154908060050154908060060160009054906101000a900460ff16908060060160019054906101000a900460ff16905088565b600360008373ffffffffffffffffffffffffffffffffffffffff1673ffffffffffffffffffffffffffffffffffffffff1681526020019081526020016000206000815480929190611bbb906126c3565b9190505550600360008473ffffffffffffffffffffffffffffffffffffffff1673ffffffffffffffffffffffffffffffffffffffff1681526020019081526020016000206000815480929190611c1090612830565b9190505550816002600083815260200190815260200160002060006101000a81548173ffffffffffffffffffffffffffffffffffffffff021916908373ffffffffffffffffffffffffffffffffffffffff160217905550808273ffffffffffffffffffffffffffffffffffffffff168473ffffffffffffffffffffffffffffffffffffffff167fddf252ad1be2c89b69c2b068fc378daa952ba7f163c4a11628f55a4df523b3ef60405160405180910390a4505050565b6000670de0b6b3a764000082611cdd9190612993565b9050919050565b600073ffffffffffffffffffffffffffffffffffffffff168173ffffffffffffffffffffffffffffffffffffffff161415611d1e57600080fd5b8073ffffffffffffffffffffffffffffffffffffffff1660008054906101000a900473ffffffffffffffffffffffffffffffffffffffff1673ffffffffffffffffffffffffffffffffffffffff167f8be0079c531659141344cd1fd0a4f28419497f9722a3daafe3b4186f6b6457e060405160405180910390a3806000806101000a81548173ffffffffffffffffffffffffffffffffffffffff021916908373ffffffffffffffffffffffffffffffffffffffff16021790555050565b828054611de790612961565b90600052602060002090601f016020900481019282611e095760008555611e50565b82601f10611e2257803560ff1916838001178555611e50565b82800160010185558215611e50579182015b82811115611e4f578235825591602001919060010190611e34565b5b509050611e5d9190611ee7565b5090565b828054611e6d90612961565b90600052602060002090601f016020900481019282611e8f5760008555611ed6565b82601f10611ea857805160ff1916838001178555611ed6565b82800160010185558215611ed6579182015b82811115611ed5578251825591602001919060010190611eba565b5b509050611ee39190611ee7565b5090565b5b80821115611f00576000816000905550600101611ee8565b5090565b6000604051905090565b600080fd5b600080fd5b6000819050919050565b611f2b81611f18565b8114611f3657600080fd5b50565b600081359050611f4881611f22565b92915050565b600080fd5b600080fd5b600080fd5b60008083601f840112611f7357611f72611f4e565b5b8235905067ffffffffffffffff811115611f9057611f8f611f53565b5b602083019150836001820283011115611fac57611fab611f58565b5b9250929050565b600080600060408486031215611fcc57611fcb611f0e565b5b6000611fda86828701611f39565b935050602084013567ffffffffffffffff811115611ffb57611ffa611f13565b5b61200786828701611f5d565b92509250509250925092565b600073ffffffffffffffffffffffffffffffffffffffff82169050919050565b600061203e82612013565b9050919050565b61204e81612033565b811461205957600080fd5b50565b60008135905061206b81612045565b92915050565b6000806040838503121561208857612087611f0e565b5b60006120968582860161205c565b92505060206120a785828601611f39565b9150509250929050565b6000602082840312156120c7576120c6611f0e565b5b60006120d584828501611f39565b91505092915050565b6120e781612033565b82525050565b600060208201905061210260008301846120de565b92915050565b600080fd5b6000601f19601f8301169050919050565b7f4e487b7100000000000000000000000000000000000000000000000000000000600052604160045260246000fd5b6121568261210d565b810181811067ffffffffffffffff821117156121755761217461211e565b5b80604052505050565b6000612188611f04565b9050612194828261214d565b919050565b600067ffffffffffffffff8211156121b4576121b361211e565b5b6121bd8261210d565b9050602081019050919050565b82818337600083830152505050565b60006121ec6121e784612199565b61217e565b90508281526020810184848401111561220857612207612108565b5b6122138482856121ca565b509392505050565b600082601f8301126122305761222f611f4e565b5b81356122408482602086016121d9565b91505092915050565b60008060006060848603121561226257612261611f0e565b5b600084013567ffffffffffffffff8111156122805761227f611f13565b5b61228c8682870161221b565b935050602061229d86828701611f39565b92505060406122ae86828701611f39565b9150509250925092565b6000806000606084860312156122d1576122d0611f0e565b5b60006122df8682870161205c565b93505060206122f08682870161205c565b925050604061230186828701611f39565b9150509250925092565b6000806040838503121561232257612321611f0e565b5b600061233085828601611f39565b925050602061234185828601611f39565b9150509250929050565b60006020828403121561236157612360611f0e565b5b600061236f8482850161205c565b91505092915050565b61238181611f18565b82525050565b600060208201905061239c6000830184612378565b92915050565b60008115159050919050565b6123b7816123a2565b82525050565b60006020820190506123d260008301846123ae565b92915050565b600081519050919050565b600082825260208201905092915050565b6000819050602082019050919050565b61240d81611f18565b82525050565b600061241f8383612404565b60208301905092915050565b6000602082019050919050565b6000612443826123d8565b61244d81856123e3565b9350612458836123f4565b8060005b838110156124895781516124708882612413565b975061247b8361242b565b92505060018101905061245c565b5085935050505092915050565b600060208201905081810360008301526124b08184612438565b905092915050565b600081519050919050565b600082825260208201905092915050565b60005b838110156124f25780820151818401526020810190506124d7565b83811115612501576000848401525b50505050565b6000612512826124b8565b61251c81856124c3565b935061252c8185602086016124d4565b6125358161210d565b840191505092915050565b600061010082019050818103600083015261255b818b612507565b905061256a602083018a6120de565b61257760408301896120de565b6125846060830188612378565b6125916080830187612378565b61259e60a0830186612378565b6125ab60c08301856123ae565b6125b860e08301846123ae565b9998505050505050505050565b7f4d757374206f776e20746869732070726f706572747900000000000000000000600082015250565b60006125fb6016836124c3565b9150612606826125c5565b602082019050919050565b6000602082019050818103600083015261262a816125ee565b9050919050565b7f4e487b7100000000000000000000000000000000000000000000000000000000600052603260045260246000fd5b7f4e487b7100000000000000000000000000000000000000000000000000000000600052601160045260246000fd5b600061269a82611f18565b91506126a583611f18565b9250828210156126b8576126b7612660565b5b828203905092915050565b60006126ce82611f18565b91507fffffffffffffffffffffffffffffffffffffffffffffffffffffffffffffffff82141561270157612700612660565b5b600182019050919050565b60006080820190506127216000830187612378565b81810360208301526127338186612507565b90506127426040830185612378565b61274f6060830184612378565b95945050505050565b7f4e6f7420666f722053616c650000000000000000000000000000000000000000600082015250565b600061278e600c836124c3565b915061279982612758565b602082019050919050565b600060208201905081810360008301526127bd81612781565b9050919050565b7f496e636f727265637420707269636520696e7075747465640000000000000000600082015250565b60006127fa6018836124c3565b9150612805826127c4565b602082019050919050565b60006020820190508181036000830152612829816127ed565b9050919050565b600061283b82611f18565b9150600082141561284f5761284e612660565b5b600182039050919050565b7f4e6f742072656e74657200000000000000000000000000000000000000000000600082015250565b6000612890600a836124c3565b915061289b8261285a565b602082019050919050565b600060208201905081810360008301526128bf81612883565b9050919050565b7f496e636f72726563742072656e7420707269636520696e707574746564000000600082015250565b60006128fc601d836124c3565b9150612907826128c6565b602082019050919050565b6000602082019050818103600083015261292b816128ef565b9050919050565b7f4e487b7100000000000000000000000000000000000000000000000000000000600052602260045260246000fd5b6000600282049050600182168061297957607f821691505b6020821081141561298d5761298c612932565b5b50919050565b600061299e82611f18565b91506129a983611f18565b9250817fffffffffffffffffffffffffffffffffffffffffffffffffffffffffffffffff04831182151516156129e2576129e1612660565b5b82820290509291505056fea2646970667358221220ca579dd067d1c252922b022a3c7d542e0668a640b778a87b1b1d8127608181bf64736f6c634300080a0033",
  "immutableReferences": {},
  "source": "// SPDX-License-Identifier: MIT\npragma solidity >=0.7.0 <0.9.0;\n\nimport \"./gypsyownership.sol\";\n\ncontract GypsyModify is GypsyOwnership {\n  \n  function changePropertyAddress(uint _propertyId, string calldata _newAddress) external onlyOwnerOf(_propertyId) {\n    properties[_propertyId].propertyAddress = _newAddress;\n  }\n\n  function changePrice(uint _propertyId, uint _newPrice) external onlyOwnerOf(_propertyId) {\n    properties[_propertyId].price = _newPrice;\n  }\n\n  function changeRentPrice(uint _propertyId, uint _newRentPrice) external onlyOwnerOf(_propertyId) {\n    properties[_propertyId].rentPrice = _newRentPrice;\n  }\n\n  function getPropertiesByOwner(address _owner) external view returns(uint[] memory) {\n    uint[] memory result = new uint[](ownerPropertyCount[_owner]);\n    uint counter = 0;\n    for (uint i = 0; i < properties.length; i++) {\n      if (propertyToOwner[i] == _owner) {\n        result[counter] = i;\n        counter++;\n      }\n    }\n    return result;\n  }\n\n}",
  "sourcePath": "/Users/JordanSun/Desktop/Gypsy/src/contracts/gypsymodify.sol",
  "compiler": {
    "name": "solc",
    "version": "0.8.10+commit.fc410830.Emscripten.clang"
  },
  "schemaVersion": "3.4.1",
  "updatedAt": "2021-12-06T06:53:02.411Z",
  "devdoc": {
    "kind": "dev",
    "methods": {
      "isOwner()": {
        "returns": {
          "_0": "true if `msg.sender` is the owner of the contract."
        }
      },
      "owner()": {
        "returns": {
          "_0": "the address of the owner."
        }
      },
      "renounceOwnership()": {
        "details": "Allows the current owner to relinquish control of the contract."
      },
      "transferOwnership(address)": {
        "details": "Allows the current owner to transfer control of the contract to a newOwner.",
        "params": {
          "newOwner": "The address to transfer ownership to."
        }
      }
    },
    "version": 1
  },
  "userdoc": {
    "kind": "user",
    "methods": {
      "renounceOwnership()": {
        "notice": "Renouncing to ownership will leave the contract without an owner. It will not be possible to call the functions with the `onlyOwner` modifier anymore."
      }
    },
    "version": 1
  }
}