{
  "contractName": "GypsySale",
  "abi": [
    {
      "anonymous": false,
      "inputs": [
        {
          "indexed": false,
          "internalType": "uint256",
          "name": "propertyId",
          "type": "uint256"
        },
        {
          "indexed": false,
          "internalType": "string",
          "name": "propertyAddress",
          "type": "string"
        },
        {
          "indexed": false,
          "internalType": "uint256",
          "name": "rentPrice",
          "type": "uint256"
        },
        {
          "indexed": false,
          "internalType": "uint256",
          "name": "price",
          "type": "uint256"
        }
      ],
      "name": "NewProperty",
      "type": "event"
    },
    {
      "anonymous": false,
      "inputs": [
        {
          "indexed": true,
          "internalType": "address",
          "name": "previousOwner",
          "type": "address"
        },
        {
          "indexed": true,
          "internalType": "address",
          "name": "newOwner",
          "type": "address"
        }
      ],
      "name": "OwnershipTransferred",
      "type": "event"
    },
    {
      "anonymous": false,
      "inputs": [
        {
          "indexed": true,
          "internalType": "address",
          "name": "_from",
          "type": "address"
        },
        {
          "indexed": true,
          "internalType": "address",
          "name": "_to",
          "type": "address"
        },
        {
          "indexed": true,
          "internalType": "uint256",
          "name": "_tokenId",
          "type": "uint256"
        }
      ],
      "name": "PropertySale",
      "type": "event"
    },
    {
      "inputs": [
        {
          "internalType": "string",
          "name": "_propertyAddress",
          "type": "string"
        },
        {
          "internalType": "uint256",
          "name": "_rentPrice",
          "type": "uint256"
        },
        {
          "internalType": "uint256",
          "name": "_price",
          "type": "uint256"
        }
      ],
      "name": "createProperty",
      "outputs": [],
      "stateMutability": "nonpayable",
      "type": "function"
    },
    {
      "inputs": [],
      "name": "isOwner",
      "outputs": [
        {
          "internalType": "bool",
          "name": "",
          "type": "bool"
        }
      ],
      "stateMutability": "view",
      "type": "function"
    },
    {
      "inputs": [],
      "name": "owner",
      "outputs": [
        {
          "internalType": "address",
          "name": "",
          "type": "address"
        }
      ],
      "stateMutability": "view",
      "type": "function"
    },
    {
      "inputs": [
        {
          "internalType": "address",
          "name": "",
          "type": "address"
        }
      ],
      "name": "ownerPropertyCount",
      "outputs": [
        {
          "internalType": "uint256",
          "name": "",
          "type": "uint256"
        }
      ],
      "stateMutability": "view",
      "type": "function"
    },
    {
      "inputs": [
        {
          "internalType": "uint256",
          "name": "",
          "type": "uint256"
        }
      ],
      "name": "properties",
      "outputs": [
        {
          "internalType": "string",
          "name": "propertyAddress",
          "type": "string"
        },
        {
          "internalType": "address",
          "name": "owner",
          "type": "address"
        },
        {
          "internalType": "address",
          "name": "renter",
          "type": "address"
        },
        {
          "internalType": "uint256",
          "name": "rentPrice",
          "type": "uint256"
        },
        {
          "internalType": "uint256",
          "name": "rentDueTime",
          "type": "uint256"
        },
        {
          "internalType": "uint256",
          "name": "price",
          "type": "uint256"
        },
        {
          "internalType": "bool",
          "name": "forSale",
          "type": "bool"
        },
        {
          "internalType": "bool",
          "name": "forRent",
          "type": "bool"
        }
      ],
      "stateMutability": "view",
      "type": "function"
    },
    {
      "inputs": [
        {
          "internalType": "uint256",
          "name": "",
          "type": "uint256"
        }
      ],
      "name": "propertyToOwner",
      "outputs": [
        {
          "internalType": "address",
          "name": "",
          "type": "address"
        }
      ],
      "stateMutability": "view",
      "type": "function"
    },
    {
      "inputs": [],
      "name": "renounceOwnership",
      "outputs": [],
      "stateMutability": "nonpayable",
      "type": "function"
    },
    {
      "inputs": [
        {
          "internalType": "address",
          "name": "newOwner",
          "type": "address"
        }
      ],
      "name": "transferOwnership",
      "outputs": [],
      "stateMutability": "nonpayable",
      "type": "function"
    },
    {
      "inputs": [],
      "name": "withdraw",
      "outputs": [],
      "stateMutability": "nonpayable",
      "type": "function"
    },
    {
      "inputs": [
        {
          "internalType": "uint256",
          "name": "_propertyId",
          "type": "uint256"
        }
      ],
      "name": "openSale",
      "outputs": [],
      "stateMutability": "nonpayable",
      "type": "function"
    },
    {
      "inputs": [
        {
          "internalType": "uint256",
          "name": "_propertyId",
          "type": "uint256"
        }
      ],
      "name": "closeSale",
      "outputs": [],
      "stateMutability": "nonpayable",
      "type": "function"
    },
    {
      "inputs": [
        {
          "internalType": "uint256",
          "name": "_propertyId",
          "type": "uint256"
        }
      ],
      "name": "buyProperty",
      "outputs": [],
      "stateMutability": "payable",
      "type": "function"
    }
  ],
  "bytecode": "0x608060405234801561001057600080fd5b50336000806101000a81548173ffffffffffffffffffffffffffffffffffffffff021916908373ffffffffffffffffffffffffffffffffffffffff16021790555060008054906101000a900473ffffffffffffffffffffffffffffffffffffffff1673ffffffffffffffffffffffffffffffffffffffff16600073ffffffffffffffffffffffffffffffffffffffff167f8be0079c531659141344cd1fd0a4f28419497f9722a3daafe3b4186f6b6457e060405160405180910390a361173c806100db6000396000f3fe6080604052600436106100a75760003560e01c806389cb8f6d1161006457806389cb8f6d146101855780638da5cb5b146101c25780638f32d59b146101ed578063a4223d5314610218578063f2fde38b14610241578063f7b108081461026a576100a7565b80630b56e383146100ac57806321319ebd146100e957806334ec740a146101125780633ccfd60b1461013b5780636fa830a614610152578063715018a61461016e575b600080fd5b3480156100b857600080fd5b506100d360048036038101906100ce9190610fb2565b6102ae565b6040516100e09190611020565b60405180910390f35b3480156100f557600080fd5b50610110600480360381019061010b9190611181565b6102e1565b005b34801561011e57600080fd5b5061013960048036038101906101349190610fb2565b610595565b005b34801561014757600080fd5b506101506106b6565b005b61016c60048036038101906101679190610fb2565b61071d565b005b34801561017a57600080fd5b50610183610994565b005b34801561019157600080fd5b506101ac60048036038101906101a7919061121c565b610a63565b6040516101b99190611258565b60405180910390f35b3480156101ce57600080fd5b506101d7610a7b565b6040516101e49190611020565b60405180910390f35b3480156101f957600080fd5b50610202610aa4565b60405161020f919061128e565b60405180910390f35b34801561022457600080fd5b5061023f600480360381019061023a9190610fb2565b610afb565b005b34801561024d57600080fd5b506102686004803603810190610263919061121c565b610c5a565b005b34801561027657600080fd5b50610291600480360381019061028c9190610fb2565b610c77565b6040516102a5989796959493929190611331565b60405180910390f35b60026020528060005260406000206000915054906101000a900473ffffffffffffffffffffffffffffffffffffffff1681565b6102e9610aa4565b6102f257600080fd5b60016040518061010001604052808581526020013373ffffffffffffffffffffffffffffffffffffffff168152602001600073ffffffffffffffffffffffffffffffffffffffff1681526020018481526020016000815260200183815260200160001515815260200160001515815250908060018154018082558091505060019003906000526020600020906007020160009091909190915060008201518160000190805190602001906103a7929190610ec5565b5060208201518160010160006101000a81548173ffffffffffffffffffffffffffffffffffffffff021916908373ffffffffffffffffffffffffffffffffffffffff16021790555060408201518160020160006101000a81548173ffffffffffffffffffffffffffffffffffffffff021916908373ffffffffffffffffffffffffffffffffffffffff160217905550606082015181600301556080820151816004015560a0820151816005015560c08201518160060160006101000a81548160ff02191690831515021790555060e08201518160060160016101000a81548160ff02191690831515021790555050506000600180805490506104a991906113e5565b9050336002600083815260200190815260200160002060006101000a81548173ffffffffffffffffffffffffffffffffffffffff021916908373ffffffffffffffffffffffffffffffffffffffff160217905550600360003373ffffffffffffffffffffffffffffffffffffffff1673ffffffffffffffffffffffffffffffffffffffff168152602001908152602001600020600081548092919061054d90611419565b91905055507f0ba21c34efe7807eef79f225cf4b033c6eaa6d9643be08a83bd574df6279564e818585856040516105879493929190611462565b60405180910390a150505050565b806002600082815260200190815260200160002060009054906101000a900473ffffffffffffffffffffffffffffffffffffffff1673ffffffffffffffffffffffffffffffffffffffff163373ffffffffffffffffffffffffffffffffffffffff1614610637576040517f08c379a000000000000000000000000000000000000000000000000000000000815260040161062e906114fa565b60405180910390fd5b60006001838154811061064d5761064c61151a565b5b906000526020600020906007020160060160016101000a81548160ff021916908315150217905550600180838154811061068a5761068961151a565b5b906000526020600020906007020160060160006101000a81548160ff0219169083151502179055505050565b6106be610aa4565b6106c757600080fd5b60006106d1610a7b565b90508073ffffffffffffffffffffffffffffffffffffffff166108fc479081150290604051600060405180830381858888f19350505050158015610719573d6000803e3d6000fd5b5050565b8060011515600182815481106107365761073561151a565b5b906000526020600020906007020160060160009054906101000a900460ff16151514610797576040517f08c379a000000000000000000000000000000000000000000000000000000000815260040161078e90611595565b60405180910390fd5b6107c5600183815481106107ae576107ad61151a565b5b906000526020600020906007020160050154610db1565b3414610806576040517f08c379a00000000000000000000000000000000000000000000000000000000081526004016107fd90611601565b60405180910390fd5b600360006002600085815260200190815260200160002060009054906101000a900473ffffffffffffffffffffffffffffffffffffffff1673ffffffffffffffffffffffffffffffffffffffff1673ffffffffffffffffffffffffffffffffffffffff168152602001908152602001600020600081548092919061088990611621565b9190505550600360003373ffffffffffffffffffffffffffffffffffffffff1673ffffffffffffffffffffffffffffffffffffffff16815260200190815260200160002060008154809291906108de90611419565b9190505550336002600084815260200190815260200160002060006101000a81548173ffffffffffffffffffffffffffffffffffffffff021916908373ffffffffffffffffffffffffffffffffffffffff160217905550813373ffffffffffffffffffffffffffffffffffffffff163073ffffffffffffffffffffffffffffffffffffffff167f1557748ac436e48fc9e42a4525d2524bb70b09fe8315ccf0f653061649241a5860405160405180910390a45050565b61099c610aa4565b6109a557600080fd5b600073ffffffffffffffffffffffffffffffffffffffff1660008054906101000a900473ffffffffffffffffffffffffffffffffffffffff1673ffffffffffffffffffffffffffffffffffffffff167f8be0079c531659141344cd1fd0a4f28419497f9722a3daafe3b4186f6b6457e060405160405180910390a360008060006101000a81548173ffffffffffffffffffffffffffffffffffffffff021916908373ffffffffffffffffffffffffffffffffffffffff160217905550565b60036020528060005260406000206000915090505481565b60008060009054906101000a900473ffffffffffffffffffffffffffffffffffffffff16905090565b60008060009054906101000a900473ffffffffffffffffffffffffffffffffffffffff1673ffffffffffffffffffffffffffffffffffffffff163373ffffffffffffffffffffffffffffffffffffffff1614905090565b806002600082815260200190815260200160002060009054906101000a900473ffffffffffffffffffffffffffffffffffffffff1673ffffffffffffffffffffffffffffffffffffffff163373ffffffffffffffffffffffffffffffffffffffff1614610b9d576040517f08c379a0000000000000000000000000000000000000000000000000000000008152600401610b94906114fa565b60405180910390fd5b816001151560018281548110610bb657610bb561151a565b5b906000526020600020906007020160060160009054906101000a900460ff16151514610c17576040517f08c379a0000000000000000000000000000000000000000000000000000000008152600401610c0e90611595565b60405180910390fd5b600060018481548110610c2d57610c2c61151a565b5b906000526020600020906007020160060160006101000a81548160ff021916908315150217905550505050565b610c62610aa4565b610c6b57600080fd5b610c7481610dce565b50565b60018181548110610c8757600080fd5b9060005260206000209060070201600091509050806000018054610caa9061167a565b80601f0160208091040260200160405190810160405280929190818152602001828054610cd69061167a565b8015610d235780601f10610cf857610100808354040283529160200191610d23565b820191906000526020600020905b815481529060010190602001808311610d0657829003601f168201915b5050505050908060010160009054906101000a900473ffffffffffffffffffffffffffffffffffffffff16908060020160009054906101000a900473ffffffffffffffffffffffffffffffffffffffff16908060030154908060040154908060050154908060060160009054906101000a900460ff16908060060160019054906101000a900460ff16905088565b6000670de0b6b3a764000082610dc791906116ac565b9050919050565b600073ffffffffffffffffffffffffffffffffffffffff168173ffffffffffffffffffffffffffffffffffffffff161415610e0857600080fd5b8073ffffffffffffffffffffffffffffffffffffffff1660008054906101000a900473ffffffffffffffffffffffffffffffffffffffff1673ffffffffffffffffffffffffffffffffffffffff167f8be0079c531659141344cd1fd0a4f28419497f9722a3daafe3b4186f6b6457e060405160405180910390a3806000806101000a81548173ffffffffffffffffffffffffffffffffffffffff021916908373ffffffffffffffffffffffffffffffffffffffff16021790555050565b828054610ed19061167a565b90600052602060002090601f016020900481019282610ef35760008555610f3a565b82601f10610f0c57805160ff1916838001178555610f3a565b82800160010185558215610f3a579182015b82811115610f39578251825591602001919060010190610f1e565b5b509050610f479190610f4b565b5090565b5b80821115610f64576000816000905550600101610f4c565b5090565b6000604051905090565b600080fd5b600080fd5b6000819050919050565b610f8f81610f7c565b8114610f9a57600080fd5b50565b600081359050610fac81610f86565b92915050565b600060208284031215610fc857610fc7610f72565b5b6000610fd684828501610f9d565b91505092915050565b600073ffffffffffffffffffffffffffffffffffffffff82169050919050565b600061100a82610fdf565b9050919050565b61101a81610fff565b82525050565b60006020820190506110356000830184611011565b92915050565b600080fd5b600080fd5b6000601f19601f8301169050919050565b7f4e487b7100000000000000000000000000000000000000000000000000000000600052604160045260246000fd5b61108e82611045565b810181811067ffffffffffffffff821117156110ad576110ac611056565b5b80604052505050565b60006110c0610f68565b90506110cc8282611085565b919050565b600067ffffffffffffffff8211156110ec576110eb611056565b5b6110f582611045565b9050602081019050919050565b82818337600083830152505050565b600061112461111f846110d1565b6110b6565b9050828152602081018484840111156111405761113f611040565b5b61114b848285611102565b509392505050565b600082601f8301126111685761116761103b565b5b8135611178848260208601611111565b91505092915050565b60008060006060848603121561119a57611199610f72565b5b600084013567ffffffffffffffff8111156111b8576111b7610f77565b5b6111c486828701611153565b93505060206111d586828701610f9d565b92505060406111e686828701610f9d565b9150509250925092565b6111f981610fff565b811461120457600080fd5b50565b600081359050611216816111f0565b92915050565b60006020828403121561123257611231610f72565b5b600061124084828501611207565b91505092915050565b61125281610f7c565b82525050565b600060208201905061126d6000830184611249565b92915050565b60008115159050919050565b61128881611273565b82525050565b60006020820190506112a3600083018461127f565b92915050565b600081519050919050565b600082825260208201905092915050565b60005b838110156112e35780820151818401526020810190506112c8565b838111156112f2576000848401525b50505050565b6000611303826112a9565b61130d81856112b4565b935061131d8185602086016112c5565b61132681611045565b840191505092915050565b600061010082019050818103600083015261134c818b6112f8565b905061135b602083018a611011565b6113686040830189611011565b6113756060830188611249565b6113826080830187611249565b61138f60a0830186611249565b61139c60c083018561127f565b6113a960e083018461127f565b9998505050505050505050565b7f4e487b7100000000000000000000000000000000000000000000000000000000600052601160045260246000fd5b60006113f082610f7c565b91506113fb83610f7c565b92508282101561140e5761140d6113b6565b5b828203905092915050565b600061142482610f7c565b91507fffffffffffffffffffffffffffffffffffffffffffffffffffffffffffffffff821415611457576114566113b6565b5b600182019050919050565b60006080820190506114776000830187611249565b818103602083015261148981866112f8565b90506114986040830185611249565b6114a56060830184611249565b95945050505050565b7f4d757374206f776e20746869732070726f706572747900000000000000000000600082015250565b60006114e46016836112b4565b91506114ef826114ae565b602082019050919050565b60006020820190508181036000830152611513816114d7565b9050919050565b7f4e487b7100000000000000000000000000000000000000000000000000000000600052603260045260246000fd5b7f4e6f7420666f722053616c650000000000000000000000000000000000000000600082015250565b600061157f600c836112b4565b915061158a82611549565b602082019050919050565b600060208201905081810360008301526115ae81611572565b9050919050565b7f496e636f727265637420707269636520696e7075747465640000000000000000600082015250565b60006115eb6018836112b4565b91506115f6826115b5565b602082019050919050565b6000602082019050818103600083015261161a816115de565b9050919050565b600061162c82610f7c565b915060008214156116405761163f6113b6565b5b600182039050919050565b7f4e487b7100000000000000000000000000000000000000000000000000000000600052602260045260246000fd5b6000600282049050600182168061169257607f821691505b602082108114156116a6576116a561164b565b5b50919050565b60006116b782610f7c565b91506116c283610f7c565b9250817fffffffffffffffffffffffffffffffffffffffffffffffffffffffffffffffff04831182151516156116fb576116fa6113b6565b5b82820290509291505056fea26469706673582212203429e838a94be79e4ddb96bf08bcf761854e683d1034f9c268da6c4a6adafffe64736f6c634300080a0033",
  "immutableReferences": {},
  "source": "// SPDX-License-Identifier: MIT\npragma solidity >=0.7.0 <0.9.0;\n\nimport \"./gypsyproperty.sol\";\n\ncontract GypsySale is GypsyProperty {\n  \n  event PropertySale(address indexed _from, address indexed _to, uint256 indexed _tokenId);\n\n  modifier onlyOwnerOf(uint _propertyId) {\n    require(msg.sender == propertyToOwner[_propertyId], \"Must own this property\");\n    _;\n  }\n  \n  modifier forSale(uint _propertyId) {\n    require(properties[_propertyId].forSale == true, \"Not for Sale\");\n    _;\n  }\n\n  function _toWei(uint value) internal pure returns(uint) {\n    return value * 10**18;\n  }\n\n  function withdraw() external onlyOwner {\n    address _owner = owner();\n    payable(_owner).transfer(address(this).balance);\n  }\n\n  function openSale(uint _propertyId) external onlyOwnerOf(_propertyId) {\n    properties[_propertyId].forRent = false;\n    properties[_propertyId].forSale = true;\n  }\n\n  function closeSale(uint _propertyId) external onlyOwnerOf(_propertyId) forSale(_propertyId) {\n    properties[_propertyId].forSale = false;\n  }\n\n  function buyProperty(uint _propertyId) external payable forSale(_propertyId) {\n    require(msg.value == _toWei(properties[_propertyId].price), \"Incorrect price inputted\");\n    ownerPropertyCount[propertyToOwner[_propertyId]]--;\n    ownerPropertyCount[msg.sender]++;\n    propertyToOwner[_propertyId] = msg.sender;\n    //properties[_propertyId].forSale = false;\n    emit PropertySale(address(this), msg.sender, _propertyId);\n  }\n\n}",
  "sourcePath": "/Users/JordanSun/Desktop/Gypsy/src/contracts/gypsysale.sol",
  "compiler": {
    "name": "solc",
    "version": "0.8.10+commit.fc410830.Emscripten.clang"
  },
  "schemaVersion": "3.4.1",
  "updatedAt": "2021-12-06T06:53:02.445Z",
  "devdoc": {
    "kind": "dev",
    "methods": {
      "isOwner()": {
        "returns": {
          "_0": "true if `msg.sender` is the owner of the contract."
        }
      },
      "owner()": {
        "returns": {
          "_0": "the address of the owner."
        }
      },
      "renounceOwnership()": {
        "details": "Allows the current owner to relinquish control of the contract."
      },
      "transferOwnership(address)": {
        "details": "Allows the current owner to transfer control of the contract to a newOwner.",
        "params": {
          "newOwner": "The address to transfer ownership to."
        }
      }
    },
    "version": 1
  },
  "userdoc": {
    "kind": "user",
    "methods": {
      "renounceOwnership()": {
        "notice": "Renouncing to ownership will leave the contract without an owner. It will not be possible to call the functions with the `onlyOwner` modifier anymore."
      }
    },
    "version": 1
  }
}